{
  "address": "0xCf7Ed3AccA5a467e9e704C703E8D87F634fB0Fc9",
  "abi": [
    {
      "inputs": [
        {
          "internalType": "address",
          "name": "vrfCoordinator",
          "type": "address"
        },
        {
          "internalType": "uint64",
          "name": "subscriptionId",
          "type": "uint64"
        },
        {
          "internalType": "bytes32",
          "name": "gasLane",
          "type": "bytes32"
        },
        {
          "internalType": "uint32",
          "name": "callbackGasLimit",
          "type": "uint32"
        }
      ],
      "stateMutability": "nonpayable",
      "type": "constructor"
    },
    {
      "inputs": [
        {
          "internalType": "address",
          "name": "have",
          "type": "address"
        },
        {
          "internalType": "address",
          "name": "want",
          "type": "address"
        }
      ],
      "name": "OnlyCoordinatorCanFulfill",
      "type": "error"
    },
    {
      "anonymous": false,
      "inputs": [
        {
          "indexed": false,
          "internalType": "uint256",
          "name": "requestId",
          "type": "uint256"
        },
        {
          "indexed": false,
          "internalType": "uint256[]",
          "name": "randomWords",
          "type": "uint256[]"
        }
      ],
      "name": "RequestFulfilled",
      "type": "event"
    },
    {
      "anonymous": false,
      "inputs": [
        {
          "indexed": false,
          "internalType": "uint256",
          "name": "requestId",
          "type": "uint256"
        },
        {
          "indexed": false,
          "internalType": "uint32",
          "name": "numWords",
          "type": "uint32"
        }
      ],
      "name": "RequestSent",
      "type": "event"
    },
    {
      "inputs": [],
      "name": "getMapping",
      "outputs": [
        {
          "internalType": "string",
          "name": "",
          "type": "string"
        }
      ],
      "stateMutability": "view",
      "type": "function"
    },
    {
      "inputs": [
        {
          "internalType": "uint256",
          "name": "requestId",
          "type": "uint256"
        },
        {
          "internalType": "uint256[]",
          "name": "randomWords",
          "type": "uint256[]"
        }
      ],
      "name": "rawFulfillRandomWords",
      "outputs": [],
      "stateMutability": "nonpayable",
      "type": "function"
    },
    {
      "inputs": [
        {
          "internalType": "string",
          "name": "str",
          "type": "string"
        },
        {
          "internalType": "uint256",
          "name": "startIndex",
          "type": "uint256"
        },
        {
          "internalType": "uint256",
          "name": "endIndex",
          "type": "uint256"
        }
      ],
      "name": "substring",
      "outputs": [
        {
          "internalType": "string",
          "name": "",
          "type": "string"
        }
      ],
      "stateMutability": "pure",
      "type": "function"
    },
    {
      "inputs": [
        {
          "internalType": "string",
          "name": "ipfsFileHash",
          "type": "string"
        }
      ],
      "name": "uploadedFile",
      "outputs": [
        {
          "internalType": "uint256",
          "name": "requestId",
          "type": "uint256"
        }
      ],
      "stateMutability": "nonpayable",
      "type": "function"
    }
  ],
  "transactionHash": "0x4ae53eb7bf2fe393c6ff54acae37b5c70bcfc82d1b38e612107b41c6ba2b61f5",
  "args": [
    "0x5FbDB2315678afecb367f032d93F642f64180aa3",
    "1",
    "0xd89b2bf150e3b9e13446986e571fb9cab24b13cea0a43ea20a6049a85cc807cc",
    "500000"
  ],
  "numDeployments": 1,
  "solcInputHash": "cad4e4c01d023911eb753a6417ce60f6",
  "bytecode": "0x6101206040523480156200001257600080fd5b506040516200158138038062001581833981810160405281019062000038919062000251565b838073ffffffffffffffffffffffffffffffffffffffff1660808173ffffffffffffffffffffffffffffffffffffffff16815250505033600360006101000a81548173ffffffffffffffffffffffffffffffffffffffff021916908373ffffffffffffffffffffffffffffffffffffffff1602179055508267ffffffffffffffff1660c08167ffffffffffffffff16815250508373ffffffffffffffffffffffffffffffffffffffff1660a08173ffffffffffffffffffffffffffffffffffffffff16815250508160e081815250508063ffffffff166101008163ffffffff168152505050505050620002c3565b600080fd5b600073ffffffffffffffffffffffffffffffffffffffff82169050919050565b600062000158826200012b565b9050919050565b6200016a816200014b565b81146200017657600080fd5b50565b6000815190506200018a816200015f565b92915050565b600067ffffffffffffffff82169050919050565b620001af8162000190565b8114620001bb57600080fd5b50565b600081519050620001cf81620001a4565b92915050565b6000819050919050565b620001ea81620001d5565b8114620001f657600080fd5b50565b6000815190506200020a81620001df565b92915050565b600063ffffffff82169050919050565b6200022b8162000210565b81146200023757600080fd5b50565b6000815190506200024b8162000220565b92915050565b600080600080608085870312156200026e576200026d62000126565b5b60006200027e8782880162000179565b94505060206200029187828801620001be565b9350506040620002a487828801620001f9565b9250506060620002b7878288016200023a565b91505092959194509250565b60805160a05160c05160e051610100516112726200030f600039600061034a0152600061030601526000610327015260006102ca0152600081816101f4015261024801526112726000f3fe608060405234801561001057600080fd5b506004361061004c5760003560e01c80631dcd9b55146100515780631fe543e314610081578063991466691461009d578063d5e350e3146100cd575b600080fd5b61006b60048036038101906100669190610a29565b6100eb565b6040516100789190610b20565b60405180910390f35b61009b60048036038101906100969190610c0a565b6101f2565b005b6100b760048036038101906100b29190610cc1565b6102b2565b6040516100c49190610d1d565b60405180910390f35b6100d5610423565b6040516100e29190610b20565b60405180910390f35b606060008490506000600185856101029190610d67565b61010c9190610d9b565b67ffffffffffffffff811115610125576101246108c8565b5b6040519080825280601f01601f1916602001820160405280156101575781602001600182028036833780820191505090505b50905060008590505b8481116101e55782818151811061017a57610179610df1565b5b602001015160f81c60f81b8287836101929190610d67565b815181106101a3576101a2610df1565b5b60200101907effffffffffffffffffffffffffffffffffffffffffffffffffffffffffffff1916908160001a90535080806101dd90610e20565b915050610160565b5080925050509392505050565b7f000000000000000000000000000000000000000000000000000000000000000073ffffffffffffffffffffffffffffffffffffffff163373ffffffffffffffffffffffffffffffffffffffff16146102a457337f00000000000000000000000000000000000000000000000000000000000000006040517f1cf993f400000000000000000000000000000000000000000000000000000000815260040161029b929190610eaa565b60405180910390fd5b6102ae82826104b5565b5050565b60008282600191906102c59291906106e3565b5060007f000000000000000000000000000000000000000000000000000000000000000073ffffffffffffffffffffffffffffffffffffffff16635d3b1d307f00000000000000000000000000000000000000000000000000000000000000007f000000000000000000000000000000000000000000000000000000000000000060037f000000000000000000000000000000000000000000000000000000000000000060016040518663ffffffff1660e01b815260040161038b959493929190610f4b565b602060405180830381600087803b1580156103a557600080fd5b505af11580156103b9573d6000803e3d6000fd5b505050506040513d601f19601f820116820180604052508101906103dd9190610fb3565b90507fcc58b13ad3eab50626c6a6300b1d139cd6ebb1688a7cced9461c2f7e762665ee816001604051610411929190610fe0565b60405180910390a18091505092915050565b60606000805461043290611038565b80601f016020809104026020016040519081016040528092919081815260200182805461045e90611038565b80156104ab5780601f10610480576101008083540402835291602001916104ab565b820191906000526020600020905b81548152906001019060200180831161048e57829003601f168201915b5050505050905090565b6000816000815181106104cb576104ca610df1565b5b6020026020010151905060006104e082610582565b905060006104f182600060056100eb565b9050600160028260405161050591906110a6565b908152602001604051809103902090805461051f90611038565b61052a929190610769565b5080600090805190602001906105419291906107f6565b507ffe2e2d779dba245964d4e3ef9b994be63856fd568bf7d3ca9e224755cb1bd54d858560405161057392919061117b565b60405180910390a15050505050565b606060008214156105ca576040518060400160405280600181526020017f300000000000000000000000000000000000000000000000000000000000000081525090506106de565b600082905060005b600082146105fc5780806105e590610e20565b915050600a826105f591906111da565b91506105d2565b60008167ffffffffffffffff811115610618576106176108c8565b5b6040519080825280601f01601f19166020018201604052801561064a5781602001600182028036833780820191505090505b5090505b600085146106d7576001826106639190610d67565b9150600a85610672919061120b565b603061067e9190610d9b565b60f81b81838151811061069457610693610df1565b5b60200101907effffffffffffffffffffffffffffffffffffffffffffffffffffffffffffff1916908160001a905350600a856106d091906111da565b945061064e565b8093505050505b919050565b8280546106ef90611038565b90600052602060002090601f0160209004810192826107115760008555610758565b82601f1061072a57803560ff1916838001178555610758565b82800160010185558215610758579182015b8281111561075757823582559160200191906001019061073c565b5b509050610765919061087c565b5090565b82805461077590611038565b90600052602060002090601f01602090048101928261079757600085556107e5565b82601f106107a857805485556107e5565b828001600101855582156107e557600052602060002091601f016020900482015b828111156107e45782548255916001019190600101906107c9565b5b5090506107f2919061087c565b5090565b82805461080290611038565b90600052602060002090601f016020900481019282610824576000855561086b565b82601f1061083d57805160ff191683800117855561086b565b8280016001018555821561086b579182015b8281111561086a57825182559160200191906001019061084f565b5b509050610878919061087c565b5090565b5b8082111561089557600081600090555060010161087d565b5090565b6000604051905090565b600080fd5b600080fd5b600080fd5b600080fd5b6000601f19601f8301169050919050565b7f4e487b7100000000000000000000000000000000000000000000000000000000600052604160045260246000fd5b610900826108b7565b810181811067ffffffffffffffff8211171561091f5761091e6108c8565b5b80604052505050565b6000610932610899565b905061093e82826108f7565b919050565b600067ffffffffffffffff82111561095e5761095d6108c8565b5b610967826108b7565b9050602081019050919050565b82818337600083830152505050565b600061099661099184610943565b610928565b9050828152602081018484840111156109b2576109b16108b2565b5b6109bd848285610974565b509392505050565b600082601f8301126109da576109d96108ad565b5b81356109ea848260208601610983565b91505092915050565b6000819050919050565b610a06816109f3565b8114610a1157600080fd5b50565b600081359050610a23816109fd565b92915050565b600080600060608486031215610a4257610a416108a3565b5b600084013567ffffffffffffffff811115610a6057610a5f6108a8565b5b610a6c868287016109c5565b9350506020610a7d86828701610a14565b9250506040610a8e86828701610a14565b9150509250925092565b600081519050919050565b600082825260208201905092915050565b60005b83811015610ad2578082015181840152602081019050610ab7565b83811115610ae1576000848401525b50505050565b6000610af282610a98565b610afc8185610aa3565b9350610b0c818560208601610ab4565b610b15816108b7565b840191505092915050565b60006020820190508181036000830152610b3a8184610ae7565b905092915050565b600067ffffffffffffffff821115610b5d57610b5c6108c8565b5b602082029050602081019050919050565b600080fd5b6000610b86610b8184610b42565b610928565b90508083825260208201905060208402830185811115610ba957610ba8610b6e565b5b835b81811015610bd25780610bbe8882610a14565b845260208401935050602081019050610bab565b5050509392505050565b600082601f830112610bf157610bf06108ad565b5b8135610c01848260208601610b73565b91505092915050565b60008060408385031215610c2157610c206108a3565b5b6000610c2f85828601610a14565b925050602083013567ffffffffffffffff811115610c5057610c4f6108a8565b5b610c5c85828601610bdc565b9150509250929050565b600080fd5b60008083601f840112610c8157610c806108ad565b5b8235905067ffffffffffffffff811115610c9e57610c9d610c66565b5b602083019150836001820283011115610cba57610cb9610b6e565b5b9250929050565b60008060208385031215610cd857610cd76108a3565b5b600083013567ffffffffffffffff811115610cf657610cf56108a8565b5b610d0285828601610c6b565b92509250509250929050565b610d17816109f3565b82525050565b6000602082019050610d326000830184610d0e565b92915050565b7f4e487b7100000000000000000000000000000000000000000000000000000000600052601160045260246000fd5b6000610d72826109f3565b9150610d7d836109f3565b925082821015610d9057610d8f610d38565b5b828203905092915050565b6000610da6826109f3565b9150610db1836109f3565b9250827fffffffffffffffffffffffffffffffffffffffffffffffffffffffffffffffff03821115610de657610de5610d38565b5b828201905092915050565b7f4e487b7100000000000000000000000000000000000000000000000000000000600052603260045260246000fd5b6000610e2b826109f3565b91507fffffffffffffffffffffffffffffffffffffffffffffffffffffffffffffffff821415610e5e57610e5d610d38565b5b600182019050919050565b600073ffffffffffffffffffffffffffffffffffffffff82169050919050565b6000610e9482610e69565b9050919050565b610ea481610e89565b82525050565b6000604082019050610ebf6000830185610e9b565b610ecc6020830184610e9b565b9392505050565b6000819050919050565b610ee681610ed3565b82525050565b600067ffffffffffffffff82169050919050565b610f0981610eec565b82525050565b600061ffff82169050919050565b610f2681610f0f565b82525050565b600063ffffffff82169050919050565b610f4581610f2c565b82525050565b600060a082019050610f606000830188610edd565b610f6d6020830187610f00565b610f7a6040830186610f1d565b610f876060830185610f3c565b610f946080830184610f3c565b9695505050505050565b600081519050610fad816109fd565b92915050565b600060208284031215610fc957610fc86108a3565b5b6000610fd784828501610f9e565b91505092915050565b6000604082019050610ff56000830185610d0e565b6110026020830184610f3c565b9392505050565b7f4e487b7100000000000000000000000000000000000000000000000000000000600052602260045260246000fd5b6000600282049050600182168061105057607f821691505b6020821081141561106457611063611009565b5b50919050565b600081905092915050565b600061108082610a98565b61108a818561106a565b935061109a818560208601610ab4565b80840191505092915050565b60006110b28284611075565b915081905092915050565b600081519050919050565b600082825260208201905092915050565b6000819050602082019050919050565b6110f2816109f3565b82525050565b600061110483836110e9565b60208301905092915050565b6000602082019050919050565b6000611128826110bd565b61113281856110c8565b935061113d836110d9565b8060005b8381101561116e57815161115588826110f8565b975061116083611110565b925050600181019050611141565b5085935050505092915050565b60006040820190506111906000830185610d0e565b81810360208301526111a2818461111d565b90509392505050565b7f4e487b7100000000000000000000000000000000000000000000000000000000600052601260045260246000fd5b60006111e5826109f3565b91506111f0836109f3565b925082611200576111ff6111ab565b5b828204905092915050565b6000611216826109f3565b9150611221836109f3565b925082611231576112306111ab565b5b82820690509291505056fea2646970667358221220092464181a926df4a965bd3f09809fc6723e28f056f3075e45d1580d38b0cab064736f6c63430008090033",
  "devdoc": {
    "kind": "dev",
    "methods": {
      "substring(string,uint256,uint256)": {
        "details": "This function finds the substring."
      }
    },
    "version": 1
  },
  "userdoc": {
    "kind": "user",
    "methods": {},
    "version": 1
  },
  "storageLayout": {
    "storage": [
      {
        "astId": 397,
        "contract": "contracts/SendContract.sol:SendContract",
        "label": "lastRandomNum",
        "offset": 0,
        "slot": "0",
        "type": "t_string_storage"
      },
      {
        "astId": 399,
        "contract": "contracts/SendContract.sol:SendContract",
        "label": "fileHash",
        "offset": 0,
        "slot": "1",
        "type": "t_string_storage"
      },
      {
        "astId": 403,
        "contract": "contracts/SendContract.sol:SendContract",
        "label": "randNumToFileHashMap",
        "offset": 0,
        "slot": "2",
        "type": "t_mapping(t_string_memory_ptr,t_string_storage)"
      },
      {
        "astId": 405,
        "contract": "contracts/SendContract.sol:SendContract",
        "label": "owner",
        "offset": 0,
        "slot": "3",
        "type": "t_address"
      }
    ],
    "types": {
      "t_address": {
        "encoding": "inplace",
        "label": "address",
        "numberOfBytes": "20"
      },
      "t_mapping(t_string_memory_ptr,t_string_storage)": {
        "encoding": "mapping",
        "key": "t_string_memory_ptr",
        "label": "mapping(string => string)",
        "numberOfBytes": "32",
        "value": "t_string_storage"
      },
      "t_string_memory_ptr": {
        "encoding": "bytes",
        "label": "string",
        "numberOfBytes": "32"
      },
      "t_string_storage": {
        "encoding": "bytes",
        "label": "string",
        "numberOfBytes": "32"
      }
    }
  }
}