{
  "address": "0xCf7Ed3AccA5a467e9e704C703E8D87F634fB0Fc9",
  "abi": [
    {
      "inputs": [
        {
          "internalType": "address",
          "name": "vrfCoordinator",
          "type": "address"
        },
        {
          "internalType": "uint64",
          "name": "subscriptionId",
          "type": "uint64"
        },
        {
          "internalType": "bytes32",
          "name": "gasLane",
          "type": "bytes32"
        },
        {
          "internalType": "uint32",
          "name": "callbackGasLimit",
          "type": "uint32"
        }
      ],
      "stateMutability": "nonpayable",
      "type": "constructor"
    },
    {
      "inputs": [
        {
          "internalType": "address",
          "name": "have",
          "type": "address"
        },
        {
          "internalType": "address",
          "name": "want",
          "type": "address"
        }
      ],
      "name": "OnlyCoordinatorCanFulfill",
      "type": "error"
    },
    {
      "anonymous": false,
      "inputs": [
        {
          "indexed": true,
          "internalType": "uint256",
          "name": "requestId",
          "type": "uint256"
        }
      ],
      "name": "RequestedRandomCode",
      "type": "event"
    },
    {
      "inputs": [
        {
          "internalType": "uint256",
          "name": "requestId",
          "type": "uint256"
        },
        {
          "internalType": "uint256[]",
          "name": "randomWords",
          "type": "uint256[]"
        }
      ],
      "name": "rawFulfillRandomWords",
      "outputs": [],
      "stateMutability": "nonpayable",
      "type": "function"
    },
    {
      "inputs": [
        {
          "internalType": "string",
          "name": "ipfsFileHash",
          "type": "string"
        }
      ],
      "name": "uploadedFile",
      "outputs": [],
      "stateMutability": "nonpayable",
      "type": "function"
    }
  ],
  "transactionHash": "0x717408eeebaa686ac69963f489d0c83de9b9b5d76e1ac93d385edd99a5052fcd",
  "args": [
    "0x5FbDB2315678afecb367f032d93F642f64180aa3",
    "1",
    "0xd89b2bf150e3b9e13446986e571fb9cab24b13cea0a43ea20a6049a85cc807cc",
    "500000"
  ],
  "numDeployments": 1,
  "solcInputHash": "cb92405b49b9afbb0343a19fadd80f41",
  "bytecode": "0x6101206040523480156200001257600080fd5b5060405162000cf838038062000cf8833981810160405281019062000038919062000251565b838073ffffffffffffffffffffffffffffffffffffffff1660808173ffffffffffffffffffffffffffffffffffffffff16815250505033600260006101000a81548173ffffffffffffffffffffffffffffffffffffffff021916908373ffffffffffffffffffffffffffffffffffffffff1602179055508267ffffffffffffffff1660c08167ffffffffffffffff16815250508373ffffffffffffffffffffffffffffffffffffffff1660a08173ffffffffffffffffffffffffffffffffffffffff16815250508160e081815250508063ffffffff166101008163ffffffff168152505050505050620002c3565b600080fd5b600073ffffffffffffffffffffffffffffffffffffffff82169050919050565b600062000158826200012b565b9050919050565b6200016a816200014b565b81146200017657600080fd5b50565b6000815190506200018a816200015f565b92915050565b600067ffffffffffffffff82169050919050565b620001af8162000190565b8114620001bb57600080fd5b50565b600081519050620001cf81620001a4565b92915050565b6000819050919050565b620001ea81620001d5565b8114620001f657600080fd5b50565b6000815190506200020a81620001df565b92915050565b600063ffffffff82169050919050565b6200022b8162000210565b81146200023757600080fd5b50565b6000815190506200024b8162000220565b92915050565b600080600080608085870312156200026e576200026d62000126565b5b60006200027e8782880162000179565b94505060206200029187828801620001be565b9350506040620002a487828801620001f9565b9250506060620002b7878288016200023a565b91505092959194509250565b60805160a05160c05160e051610100516109eb6200030d60003960006101c901526000610185015260006101a6015260006101490152600081816075015260c901526109eb6000f3fe608060405234801561001057600080fd5b50600436106100365760003560e01c80631fe543e31461003b5780639914666914610057575b600080fd5b61005560048036038101906100509190610680565b610073565b005b610071600480360381019061006c9190610737565b610133565b005b7f000000000000000000000000000000000000000000000000000000000000000073ffffffffffffffffffffffffffffffffffffffff163373ffffffffffffffffffffffffffffffffffffffff161461012557337f00000000000000000000000000000000000000000000000000000000000000006040517f1cf993f400000000000000000000000000000000000000000000000000000000815260040161011c9291906107c5565b60405180910390fd5b61012f8282610290565b5050565b8181600091906101449291906103ad565b5060007f000000000000000000000000000000000000000000000000000000000000000073ffffffffffffffffffffffffffffffffffffffff16635d3b1d307f00000000000000000000000000000000000000000000000000000000000000007f000000000000000000000000000000000000000000000000000000000000000060037f000000000000000000000000000000000000000000000000000000000000000060016040518663ffffffff1660e01b815260040161020a959493929190610866565b602060405180830381600087803b15801561022457600080fd5b505af1158015610238573d6000803e3d6000fd5b505050506040513d601f19601f8201168201806040525081019061025c91906108ce565b9050807fae0fc43a21093345f9ddc9178a299dfd45b5ccb483f86a3eb777b27c40e89ab360405160405180910390a2505050565b6000816000815181106102a6576102a56108fb565b5b602002602001015190506000600160008381526020019081526020016000209080546102d190610959565b6102dc929190610433565b506102e6816102eb565b505050565b610381816040516024016102ff919061099a565b6040516020818303038152906040527ff82c50f1000000000000000000000000000000000000000000000000000000007bffffffffffffffffffffffffffffffffffffffffffffffffffffffff19166020820180517bffffffffffffffffffffffffffffffffffffffffffffffffffffffff8381831617835250505050610384565b50565b60008151905060006a636f6e736f6c652e6c6f679050602083016000808483855afa5050505050565b8280546103b990610959565b90600052602060002090601f0160209004810192826103db5760008555610422565b82601f106103f457803560ff1916838001178555610422565b82800160010185558215610422579182015b82811115610421578235825591602001919060010190610406565b5b50905061042f91906104c0565b5090565b82805461043f90610959565b90600052602060002090601f01602090048101928261046157600085556104af565b82601f1061047257805485556104af565b828001600101855582156104af57600052602060002091601f016020900482015b828111156104ae578254825591600101919060010190610493565b5b5090506104bc91906104c0565b5090565b5b808211156104d95760008160009055506001016104c1565b5090565b6000604051905090565b600080fd5b600080fd5b6000819050919050565b610504816104f1565b811461050f57600080fd5b50565b600081359050610521816104fb565b92915050565b600080fd5b6000601f19601f8301169050919050565b7f4e487b7100000000000000000000000000000000000000000000000000000000600052604160045260246000fd5b6105758261052c565b810181811067ffffffffffffffff821117156105945761059361053d565b5b80604052505050565b60006105a76104dd565b90506105b3828261056c565b919050565b600067ffffffffffffffff8211156105d3576105d261053d565b5b602082029050602081019050919050565b600080fd5b60006105fc6105f7846105b8565b61059d565b9050808382526020820190506020840283018581111561061f5761061e6105e4565b5b835b8181101561064857806106348882610512565b845260208401935050602081019050610621565b5050509392505050565b600082601f83011261066757610666610527565b5b81356106778482602086016105e9565b91505092915050565b60008060408385031215610697576106966104e7565b5b60006106a585828601610512565b925050602083013567ffffffffffffffff8111156106c6576106c56104ec565b5b6106d285828601610652565b9150509250929050565b600080fd5b60008083601f8401126106f7576106f6610527565b5b8235905067ffffffffffffffff811115610714576107136106dc565b5b6020830191508360018202830111156107305761072f6105e4565b5b9250929050565b6000806020838503121561074e5761074d6104e7565b5b600083013567ffffffffffffffff81111561076c5761076b6104ec565b5b610778858286016106e1565b92509250509250929050565b600073ffffffffffffffffffffffffffffffffffffffff82169050919050565b60006107af82610784565b9050919050565b6107bf816107a4565b82525050565b60006040820190506107da60008301856107b6565b6107e760208301846107b6565b9392505050565b6000819050919050565b610801816107ee565b82525050565b600067ffffffffffffffff82169050919050565b61082481610807565b82525050565b600061ffff82169050919050565b6108418161082a565b82525050565b600063ffffffff82169050919050565b61086081610847565b82525050565b600060a08201905061087b60008301886107f8565b610888602083018761081b565b6108956040830186610838565b6108a26060830185610857565b6108af6080830184610857565b9695505050505050565b6000815190506108c8816104fb565b92915050565b6000602082840312156108e4576108e36104e7565b5b60006108f2848285016108b9565b91505092915050565b7f4e487b7100000000000000000000000000000000000000000000000000000000600052603260045260246000fd5b7f4e487b7100000000000000000000000000000000000000000000000000000000600052602260045260246000fd5b6000600282049050600182168061097157607f821691505b602082108114156109855761098461092a565b5b50919050565b610994816104f1565b82525050565b60006020820190506109af600083018461098b565b9291505056fea2646970667358221220d3912ece093124d31bda3d7c6db8b45432a33eab7ef05c75e388c80bff1070e664736f6c63430008090033",
  "devdoc": {
    "kind": "dev",
    "methods": {},
    "version": 1
  },
  "userdoc": {
    "kind": "user",
    "methods": {},
    "version": 1
  },
  "storageLayout": {
    "storage": [
      {
        "astId": 170,
        "contract": "contracts/Send.sol:Send",
        "label": "fileHash",
        "offset": 0,
        "slot": "0",
        "type": "t_string_storage"
      },
      {
        "astId": 174,
        "contract": "contracts/Send.sol:Send",
        "label": "randNumToFileHashMap",
        "offset": 0,
        "slot": "1",
        "type": "t_mapping(t_uint256,t_string_storage)"
      },
      {
        "astId": 176,
        "contract": "contracts/Send.sol:Send",
        "label": "owner",
        "offset": 0,
        "slot": "2",
        "type": "t_address"
      }
    ],
    "types": {
      "t_address": {
        "encoding": "inplace",
        "label": "address",
        "numberOfBytes": "20"
      },
      "t_mapping(t_uint256,t_string_storage)": {
        "encoding": "mapping",
        "key": "t_uint256",
        "label": "mapping(uint256 => string)",
        "numberOfBytes": "32",
        "value": "t_string_storage"
      },
      "t_string_storage": {
        "encoding": "bytes",
        "label": "string",
        "numberOfBytes": "32"
      },
      "t_uint256": {
        "encoding": "inplace",
        "label": "uint256",
        "numberOfBytes": "32"
      }
    }
  }
}