{
  "address": "0x316FC7F16365b00a4617205f31dE8A3DBd6CD7d0",
  "abi": [
    {
      "inputs": [
        {
          "internalType": "address",
          "name": "vrfCoordinator",
          "type": "address"
        },
        {
          "internalType": "uint64",
          "name": "subscriptionId",
          "type": "uint64"
        },
        {
          "internalType": "bytes32",
          "name": "gasLane",
          "type": "bytes32"
        },
        {
          "internalType": "uint32",
          "name": "callbackGasLimit",
          "type": "uint32"
        }
      ],
      "stateMutability": "nonpayable",
      "type": "constructor"
    },
    {
      "inputs": [],
      "name": "AccessDenied",
      "type": "error"
    },
    {
      "inputs": [
        {
          "internalType": "address",
          "name": "have",
          "type": "address"
        },
        {
          "internalType": "address",
          "name": "want",
          "type": "address"
        }
      ],
      "name": "OnlyCoordinatorCanFulfill",
      "type": "error"
    },
    {
      "anonymous": false,
      "inputs": [
        {
          "indexed": false,
          "internalType": "string",
          "name": "fileHash",
          "type": "string"
        }
      ],
      "name": "FileRetrieved",
      "type": "event"
    },
    {
      "anonymous": false,
      "inputs": [
        {
          "indexed": false,
          "internalType": "string",
          "name": "randomNum",
          "type": "string"
        }
      ],
      "name": "RequestFulfilled",
      "type": "event"
    },
    {
      "anonymous": false,
      "inputs": [
        {
          "indexed": false,
          "internalType": "uint256",
          "name": "requestId",
          "type": "uint256"
        }
      ],
      "name": "RequestSent",
      "type": "event"
    },
    {
      "inputs": [
        {
          "internalType": "string",
          "name": "randNum",
          "type": "string"
        }
      ],
      "name": "getFile",
      "outputs": [],
      "stateMutability": "nonpayable",
      "type": "function"
    },
    {
      "inputs": [
        {
          "internalType": "string",
          "name": "randNum",
          "type": "string"
        }
      ],
      "name": "getFileHash",
      "outputs": [
        {
          "internalType": "string",
          "name": "",
          "type": "string"
        }
      ],
      "stateMutability": "view",
      "type": "function"
    },
    {
      "inputs": [],
      "name": "getRandomNum",
      "outputs": [
        {
          "internalType": "string",
          "name": "",
          "type": "string"
        }
      ],
      "stateMutability": "view",
      "type": "function"
    },
    {
      "inputs": [
        {
          "internalType": "uint256",
          "name": "requestId",
          "type": "uint256"
        },
        {
          "internalType": "uint256[]",
          "name": "randomWords",
          "type": "uint256[]"
        }
      ],
      "name": "rawFulfillRandomWords",
      "outputs": [],
      "stateMutability": "nonpayable",
      "type": "function"
    },
    {
      "inputs": [
        {
          "internalType": "string",
          "name": "str",
          "type": "string"
        },
        {
          "internalType": "uint256",
          "name": "startIndex",
          "type": "uint256"
        },
        {
          "internalType": "uint256",
          "name": "endIndex",
          "type": "uint256"
        }
      ],
      "name": "substring",
      "outputs": [
        {
          "internalType": "string",
          "name": "",
          "type": "string"
        }
      ],
      "stateMutability": "pure",
      "type": "function"
    },
    {
      "inputs": [
        {
          "internalType": "string",
          "name": "ipfsFileHash",
          "type": "string"
        }
      ],
      "name": "uploadedFile",
      "outputs": [],
      "stateMutability": "nonpayable",
      "type": "function"
    }
  ],
  "transactionHash": "0x34b539fab8566f915f9d807d2387ee91290292c3ed9c61a172859f5a0fc21687",
  "args": [
    "0x7a1BaC17Ccc5b313516C5E16fb24f7659aA5ebed",
    "1972",
    "0x4b09e658ed251bcafeebbc69400383d49f344ace09b9576fe248bb02c003fe9f",
    "2500000"
  ],
  "numDeployments": 14,
  "solcInputHash": "41a317834f95c45def2346fb9252f6fe",
  "bytecode": "0x6101206040523480156200001257600080fd5b5060405162001a6738038062001a67833981810160405281019062000038919062000251565b838073ffffffffffffffffffffffffffffffffffffffff1660808173ffffffffffffffffffffffffffffffffffffffff16815250505033600460006101000a81548173ffffffffffffffffffffffffffffffffffffffff021916908373ffffffffffffffffffffffffffffffffffffffff1602179055508267ffffffffffffffff1660c08167ffffffffffffffff16815250508373ffffffffffffffffffffffffffffffffffffffff1660a08173ffffffffffffffffffffffffffffffffffffffff16815250508160e081815250508063ffffffff166101008163ffffffff168152505050505050620002c3565b600080fd5b600073ffffffffffffffffffffffffffffffffffffffff82169050919050565b600062000158826200012b565b9050919050565b6200016a816200014b565b81146200017657600080fd5b50565b6000815190506200018a816200015f565b92915050565b600067ffffffffffffffff82169050919050565b620001af8162000190565b8114620001bb57600080fd5b50565b600081519050620001cf81620001a4565b92915050565b6000819050919050565b620001ea81620001d5565b8114620001f657600080fd5b50565b6000815190506200020a81620001df565b92915050565b600063ffffffff82169050919050565b6200022b8162000210565b81146200023757600080fd5b50565b6000815190506200024b8162000220565b92915050565b600080600080608085870312156200026e576200026d62000126565b5b60006200027e8782880162000179565b94505060206200029187828801620001be565b9350506040620002a487828801620001f9565b9250506060620002b7878288016200023a565b91505092959194509250565b60805160a05160c05160e051610100516117586200030f6000396000610428015260006103e401526000610405015260006103a8015260008181610242015261029601526117586000f3fe608060405234801561001057600080fd5b50600436106100625760003560e01c80631dcd9b55146100675780631fe543e31461009757806325b814f4146100b357806399146669146100d1578063e0876aa8146100ed578063f880680b14610109575b600080fd5b610081600480360381019061007c9190610e4d565b610139565b60405161008e9190610f44565b60405180910390f35b6100b160048036038101906100ac919061102e565b610240565b005b6100bb610300565b6040516100c89190610f44565b60405180910390f35b6100eb60048036038101906100e691906110e5565b610392565b005b610107600480360381019061010291906110e5565b6104f9565b005b610123600480360381019061011e9190611132565b6106ba565b6040516101309190610f44565b60405180910390f35b6060600084905060006001858561015091906111aa565b61015a91906111de565b67ffffffffffffffff81111561017357610172610cec565b5b6040519080825280601f01601f1916602001820160405280156101a55781602001600182028036833780820191505090505b50905060008590505b848111610233578281815181106101c8576101c7611234565b5b602001015160f81c60f81b8287836101e091906111aa565b815181106101f1576101f0611234565b5b60200101907effffffffffffffffffffffffffffffffffffffffffffffffffffffffffffff1916908160001a905350808061022b90611263565b9150506101ae565b5080925050509392505050565b7f000000000000000000000000000000000000000000000000000000000000000073ffffffffffffffffffffffffffffffffffffffff163373ffffffffffffffffffffffffffffffffffffffff16146102f257337f00000000000000000000000000000000000000000000000000000000000000006040517f1cf993f40000000000000000000000000000000000000000000000000000000081526004016102e99291906112ed565b60405180910390fd5b6102fc828261089b565b5050565b60606002805461030f90611345565b80601f016020809104026020016040519081016040528092919081815260200182805461033b90611345565b80156103885780601f1061035d57610100808354040283529160200191610388565b820191906000526020600020905b81548152906001019060200180831161036b57829003601f168201915b5050505050905090565b8181600191906103a3929190610ac7565b5060007f000000000000000000000000000000000000000000000000000000000000000073ffffffffffffffffffffffffffffffffffffffff16635d3b1d307f00000000000000000000000000000000000000000000000000000000000000007f000000000000000000000000000000000000000000000000000000000000000060037f000000000000000000000000000000000000000000000000000000000000000060016040518663ffffffff1660e01b81526004016104699594939291906113ef565b602060405180830381600087803b15801561048357600080fd5b505af1158015610497573d6000803e3d6000fd5b505050506040513d601f19601f820116820180604052508101906104bb9190611457565b90507f0cd21a41891ff04ecd9a8754bec97e2fb85d2a4e7694329d4dc364c796f23d06816040516104ec9190611493565b60405180910390a1505050565b604051602001610508906114df565b6040516020818303038152906040528051906020012060038383604051610530929190611519565b908152602001604051809103902060405160200161054e91906115c6565b6040516020818303038152906040528051906020012014156105a5576040517f08c379a000000000000000000000000000000000000000000000000000000000815260040161059c90611629565b60405180910390fd5b6000600383836040516105b9929190611519565b908152602001604051809103902080546105d290611345565b80601f01602080910402602001604051908101604052809291908181526020018280546105fe90611345565b801561064b5780601f106106205761010080835404028352916020019161064b565b820191906000526020600020905b81548152906001019060200180831161062e57829003601f168201915b5050505050905060038383604051610664929190611519565b9081526020016040518091039020600061067e9190610b4d565b7f462a69cd26fa2a380c04628d0562816f27dfaa911feddc60f290a07c33d80546816040516106ad9190610f44565b60405180910390a1505050565b6060600460009054906101000a900473ffffffffffffffffffffffffffffffffffffffff1673ffffffffffffffffffffffffffffffffffffffff163373ffffffffffffffffffffffffffffffffffffffff1614610743576040517f4ca8886700000000000000000000000000000000000000000000000000000000815260040160405180910390fd5b604051602001610752906114df565b60405160208183030381529060405280519060200120600383604051610778919061167a565b908152602001604051809103902060405160200161079691906115c6565b6040516020818303038152906040528051906020012014156107ed576040517f08c379a00000000000000000000000000000000000000000000000000000000081526004016107e490611629565b60405180910390fd5b6003826040516107fd919061167a565b9081526020016040518091039020805461081690611345565b80601f016020809104026020016040519081016040528092919081815260200182805461084290611345565b801561088f5780601f106108645761010080835404028352916020019161088f565b820191906000526020600020905b81548152906001019060200180831161087257829003601f168201915b50505050509050919050565b6000816000815181106108b1576108b0611234565b5b6020026020010151905060006108c682610966565b905060006108d78260006005610139565b905060016003826040516108eb919061167a565b908152602001604051809103902090805461090590611345565b610910929190610b8d565b508060029080519060200190610927929190610c1a565b507f083542d7532363ebf1f5ddd435e82f33c12251d61bae6088bacc46b57bea3822816040516109579190610f44565b60405180910390a15050505050565b606060008214156109ae576040518060400160405280600181526020017f30000000000000000000000000000000000000000000000000000000000000008152509050610ac2565b600082905060005b600082146109e05780806109c990611263565b915050600a826109d991906116c0565b91506109b6565b60008167ffffffffffffffff8111156109fc576109fb610cec565b5b6040519080825280601f01601f191660200182016040528015610a2e5781602001600182028036833780820191505090505b5090505b60008514610abb57600182610a4791906111aa565b9150600a85610a5691906116f1565b6030610a6291906111de565b60f81b818381518110610a7857610a77611234565b5b60200101907effffffffffffffffffffffffffffffffffffffffffffffffffffffffffffff1916908160001a905350600a85610ab491906116c0565b9450610a32565b8093505050505b919050565b828054610ad390611345565b90600052602060002090601f016020900481019282610af55760008555610b3c565b82601f10610b0e57803560ff1916838001178555610b3c565b82800160010185558215610b3c579182015b82811115610b3b578235825591602001919060010190610b20565b5b509050610b499190610ca0565b5090565b508054610b5990611345565b6000825580601f10610b6b5750610b8a565b601f016020900490600052602060002090810190610b899190610ca0565b5b50565b828054610b9990611345565b90600052602060002090601f016020900481019282610bbb5760008555610c09565b82601f10610bcc5780548555610c09565b82800160010185558215610c0957600052602060002091601f016020900482015b82811115610c08578254825591600101919060010190610bed565b5b509050610c169190610ca0565b5090565b828054610c2690611345565b90600052602060002090601f016020900481019282610c485760008555610c8f565b82601f10610c6157805160ff1916838001178555610c8f565b82800160010185558215610c8f579182015b82811115610c8e578251825591602001919060010190610c73565b5b509050610c9c9190610ca0565b5090565b5b80821115610cb9576000816000905550600101610ca1565b5090565b6000604051905090565b600080fd5b600080fd5b600080fd5b600080fd5b6000601f19601f8301169050919050565b7f4e487b7100000000000000000000000000000000000000000000000000000000600052604160045260246000fd5b610d2482610cdb565b810181811067ffffffffffffffff82111715610d4357610d42610cec565b5b80604052505050565b6000610d56610cbd565b9050610d628282610d1b565b919050565b600067ffffffffffffffff821115610d8257610d81610cec565b5b610d8b82610cdb565b9050602081019050919050565b82818337600083830152505050565b6000610dba610db584610d67565b610d4c565b905082815260208101848484011115610dd657610dd5610cd6565b5b610de1848285610d98565b509392505050565b600082601f830112610dfe57610dfd610cd1565b5b8135610e0e848260208601610da7565b91505092915050565b6000819050919050565b610e2a81610e17565b8114610e3557600080fd5b50565b600081359050610e4781610e21565b92915050565b600080600060608486031215610e6657610e65610cc7565b5b600084013567ffffffffffffffff811115610e8457610e83610ccc565b5b610e9086828701610de9565b9350506020610ea186828701610e38565b9250506040610eb286828701610e38565b9150509250925092565b600081519050919050565b600082825260208201905092915050565b60005b83811015610ef6578082015181840152602081019050610edb565b83811115610f05576000848401525b50505050565b6000610f1682610ebc565b610f208185610ec7565b9350610f30818560208601610ed8565b610f3981610cdb565b840191505092915050565b60006020820190508181036000830152610f5e8184610f0b565b905092915050565b600067ffffffffffffffff821115610f8157610f80610cec565b5b602082029050602081019050919050565b600080fd5b6000610faa610fa584610f66565b610d4c565b90508083825260208201905060208402830185811115610fcd57610fcc610f92565b5b835b81811015610ff65780610fe28882610e38565b845260208401935050602081019050610fcf565b5050509392505050565b600082601f83011261101557611014610cd1565b5b8135611025848260208601610f97565b91505092915050565b6000806040838503121561104557611044610cc7565b5b600061105385828601610e38565b925050602083013567ffffffffffffffff81111561107457611073610ccc565b5b61108085828601611000565b9150509250929050565b600080fd5b60008083601f8401126110a5576110a4610cd1565b5b8235905067ffffffffffffffff8111156110c2576110c161108a565b5b6020830191508360018202830111156110de576110dd610f92565b5b9250929050565b600080602083850312156110fc576110fb610cc7565b5b600083013567ffffffffffffffff81111561111a57611119610ccc565b5b6111268582860161108f565b92509250509250929050565b60006020828403121561114857611147610cc7565b5b600082013567ffffffffffffffff81111561116657611165610ccc565b5b61117284828501610de9565b91505092915050565b7f4e487b7100000000000000000000000000000000000000000000000000000000600052601160045260246000fd5b60006111b582610e17565b91506111c083610e17565b9250828210156111d3576111d261117b565b5b828203905092915050565b60006111e982610e17565b91506111f483610e17565b9250827fffffffffffffffffffffffffffffffffffffffffffffffffffffffffffffffff038211156112295761122861117b565b5b828201905092915050565b7f4e487b7100000000000000000000000000000000000000000000000000000000600052603260045260246000fd5b600061126e82610e17565b91507fffffffffffffffffffffffffffffffffffffffffffffffffffffffffffffffff8214156112a1576112a061117b565b5b600182019050919050565b600073ffffffffffffffffffffffffffffffffffffffff82169050919050565b60006112d7826112ac565b9050919050565b6112e7816112cc565b82525050565b600060408201905061130260008301856112de565b61130f60208301846112de565b9392505050565b7f4e487b7100000000000000000000000000000000000000000000000000000000600052602260045260246000fd5b6000600282049050600182168061135d57607f821691505b6020821081141561137157611370611316565b5b50919050565b6000819050919050565b61138a81611377565b82525050565b600067ffffffffffffffff82169050919050565b6113ad81611390565b82525050565b600061ffff82169050919050565b6113ca816113b3565b82525050565b600063ffffffff82169050919050565b6113e9816113d0565b82525050565b600060a0820190506114046000830188611381565b61141160208301876113a4565b61141e60408301866113c1565b61142b60608301856113e0565b61143860808301846113e0565b9695505050505050565b60008151905061145181610e21565b92915050565b60006020828403121561146d5761146c610cc7565b5b600061147b84828501611442565b91505092915050565b61148d81610e17565b82525050565b60006020820190506114a86000830184611484565b92915050565b600081905092915050565b50565b60006114c96000836114ae565b91506114d4826114b9565b600082019050919050565b60006114ea826114bc565b9150819050919050565b600061150083856114ae565b935061150d838584610d98565b82840190509392505050565b60006115268284866114f4565b91508190509392505050565b60008190508160005260206000209050919050565b6000815461155481611345565b61155e81866114ae565b94506001821660008114611579576001811461158a576115bd565b60ff198316865281860193506115bd565b61159385611532565b60005b838110156115b557815481890152600182019150602081019050611596565b838801955050505b50505092915050565b60006115d28284611547565b915081905092915050565b7f46696c652052657472696576656420416c726561647900000000000000000000600082015250565b6000611613601683610ec7565b915061161e826115dd565b602082019050919050565b6000602082019050818103600083015261164281611606565b9050919050565b600061165482610ebc565b61165e81856114ae565b935061166e818560208601610ed8565b80840191505092915050565b60006116868284611649565b915081905092915050565b7f4e487b7100000000000000000000000000000000000000000000000000000000600052601260045260246000fd5b60006116cb82610e17565b91506116d683610e17565b9250826116e6576116e5611691565b5b828204905092915050565b60006116fc82610e17565b915061170783610e17565b92508261171757611716611691565b5b82820690509291505056fea264697066735822122052cd73e916ba6b48f88167d83e79c7983590c2d56da9a49da0bdb609d6dc56d464736f6c63430008090033",
  "devdoc": {
    "kind": "dev",
    "methods": {
      "substring(string,uint256,uint256)": {
        "details": "This function finds the substring."
      }
    },
    "version": 1
  },
  "userdoc": {
    "kind": "user",
    "methods": {},
    "version": 1
  },
  "storageLayout": {
    "storage": [
      {
        "astId": 400,
        "contract": "contracts/SendContract.sol:SendContract",
        "label": "lastRandomNum",
        "offset": 0,
        "slot": "0",
        "type": "t_string_storage"
      },
      {
        "astId": 402,
        "contract": "contracts/SendContract.sol:SendContract",
        "label": "fileHash",
        "offset": 0,
        "slot": "1",
        "type": "t_string_storage"
      },
      {
        "astId": 404,
        "contract": "contracts/SendContract.sol:SendContract",
        "label": "generatedrandomNum",
        "offset": 0,
        "slot": "2",
        "type": "t_string_storage"
      },
      {
        "astId": 408,
        "contract": "contracts/SendContract.sol:SendContract",
        "label": "randNumToFileHashMap",
        "offset": 0,
        "slot": "3",
        "type": "t_mapping(t_string_memory_ptr,t_string_storage)"
      },
      {
        "astId": 410,
        "contract": "contracts/SendContract.sol:SendContract",
        "label": "owner",
        "offset": 0,
        "slot": "4",
        "type": "t_address"
      }
    ],
    "types": {
      "t_address": {
        "encoding": "inplace",
        "label": "address",
        "numberOfBytes": "20"
      },
      "t_mapping(t_string_memory_ptr,t_string_storage)": {
        "encoding": "mapping",
        "key": "t_string_memory_ptr",
        "label": "mapping(string => string)",
        "numberOfBytes": "32",
        "value": "t_string_storage"
      },
      "t_string_memory_ptr": {
        "encoding": "bytes",
        "label": "string",
        "numberOfBytes": "32"
      },
      "t_string_storage": {
        "encoding": "bytes",
        "label": "string",
        "numberOfBytes": "32"
      }
    }
  }
}