{
  "address": "0x11369093fb167eBBD29040c2F794f435946FE8ce",
  "abi": [
    {
      "inputs": [
        {
          "internalType": "address",
          "name": "vrfCoordinator",
          "type": "address"
        },
        {
          "internalType": "uint64",
          "name": "subscriptionId",
          "type": "uint64"
        },
        {
          "internalType": "bytes32",
          "name": "gasLane",
          "type": "bytes32"
        },
        {
          "internalType": "uint32",
          "name": "callbackGasLimit",
          "type": "uint32"
        }
      ],
      "stateMutability": "nonpayable",
      "type": "constructor"
    },
    {
      "inputs": [],
      "name": "AccessDenied",
      "type": "error"
    },
    {
      "inputs": [],
      "name": "FileRetrievedAlready",
      "type": "error"
    },
    {
      "inputs": [
        {
          "internalType": "address",
          "name": "have",
          "type": "address"
        },
        {
          "internalType": "address",
          "name": "want",
          "type": "address"
        }
      ],
      "name": "OnlyCoordinatorCanFulfill",
      "type": "error"
    },
    {
      "anonymous": false,
      "inputs": [
        {
          "indexed": false,
          "internalType": "uint256",
          "name": "requestId",
          "type": "uint256"
        },
        {
          "indexed": false,
          "internalType": "string",
          "name": "randomNum",
          "type": "string"
        }
      ],
      "name": "RequestFulfilled",
      "type": "event"
    },
    {
      "anonymous": false,
      "inputs": [
        {
          "indexed": false,
          "internalType": "uint256",
          "name": "requestId",
          "type": "uint256"
        }
      ],
      "name": "RequestSent",
      "type": "event"
    },
    {
      "inputs": [
        {
          "internalType": "string",
          "name": "randNum",
          "type": "string"
        }
      ],
      "name": "getFile",
      "outputs": [
        {
          "internalType": "string",
          "name": "",
          "type": "string"
        }
      ],
      "stateMutability": "nonpayable",
      "type": "function"
    },
    {
      "inputs": [],
      "name": "getRandomNum",
      "outputs": [
        {
          "internalType": "string",
          "name": "",
          "type": "string"
        }
      ],
      "stateMutability": "view",
      "type": "function"
    },
    {
      "inputs": [
        {
          "internalType": "uint256",
          "name": "requestId",
          "type": "uint256"
        },
        {
          "internalType": "uint256[]",
          "name": "randomWords",
          "type": "uint256[]"
        }
      ],
      "name": "rawFulfillRandomWords",
      "outputs": [],
      "stateMutability": "nonpayable",
      "type": "function"
    },
    {
      "inputs": [
        {
          "internalType": "string",
          "name": "str",
          "type": "string"
        },
        {
          "internalType": "uint256",
          "name": "startIndex",
          "type": "uint256"
        },
        {
          "internalType": "uint256",
          "name": "endIndex",
          "type": "uint256"
        }
      ],
      "name": "substring",
      "outputs": [
        {
          "internalType": "string",
          "name": "",
          "type": "string"
        }
      ],
      "stateMutability": "pure",
      "type": "function"
    },
    {
      "inputs": [
        {
          "internalType": "string",
          "name": "ipfsFileHash",
          "type": "string"
        }
      ],
      "name": "uploadedFile",
      "outputs": [
        {
          "internalType": "uint256",
          "name": "",
          "type": "uint256"
        }
      ],
      "stateMutability": "nonpayable",
      "type": "function"
    }
  ],
  "transactionHash": "0xb2e9fff427978a47e42c440372f6d84b2d6580663cf55c279f75d741a4012bae",
  "args": [
    "0x7a1BaC17Ccc5b313516C5E16fb24f7659aA5ebed",
    "1972",
    "0x4b09e658ed251bcafeebbc69400383d49f344ace09b9576fe248bb02c003fe9f",
    "2500000"
  ],
  "numDeployments": 9,
  "solcInputHash": "4ecae3cd75012360a8398668c680ce5a",
  "bytecode": "0x6101206040523480156200001257600080fd5b506040516200180c3803806200180c833981810160405281019062000038919062000251565b838073ffffffffffffffffffffffffffffffffffffffff1660808173ffffffffffffffffffffffffffffffffffffffff16815250505033600460006101000a81548173ffffffffffffffffffffffffffffffffffffffff021916908373ffffffffffffffffffffffffffffffffffffffff1602179055508267ffffffffffffffff1660c08167ffffffffffffffff16815250508373ffffffffffffffffffffffffffffffffffffffff1660a08173ffffffffffffffffffffffffffffffffffffffff16815250508160e081815250508063ffffffff166101008163ffffffff168152505050505050620002c3565b600080fd5b600073ffffffffffffffffffffffffffffffffffffffff82169050919050565b600062000158826200012b565b9050919050565b6200016a816200014b565b81146200017657600080fd5b50565b6000815190506200018a816200015f565b92915050565b600067ffffffffffffffff82169050919050565b620001af8162000190565b8114620001bb57600080fd5b50565b600081519050620001cf81620001a4565b92915050565b6000819050919050565b620001ea81620001d5565b8114620001f657600080fd5b50565b6000815190506200020a81620001df565b92915050565b600063ffffffff82169050919050565b6200022b8162000210565b81146200023757600080fd5b50565b6000815190506200024b8162000220565b92915050565b600080600080608085870312156200026e576200026d62000126565b5b60006200027e8782880162000179565b94505060206200029187828801620001be565b9350506040620002a487828801620001f9565b9250506060620002b7878288016200023a565b91505092959194509250565b60805160a05160c05160e051610100516114fd6200030f60003960006104a30152600061045f015260006104800152600061042301526000818161022f015261028301526114fd6000f3fe608060405234801561001057600080fd5b50600436106100575760003560e01c80631dcd9b551461005c5780631fe543e31461008c57806325b814f4146100a857806399146669146100c6578063e0876aa8146100f6575b600080fd5b61007660048036038101906100719190610c2e565b610126565b6040516100839190610d25565b60405180910390f35b6100a660048036038101906100a19190610e0f565b61022d565b005b6100b06102ed565b6040516100bd9190610d25565b60405180910390f35b6100e060048036038101906100db9190610e6b565b610406565b6040516100ed9190610ec3565b60405180910390f35b610110600480360381019061010b9190610f39565b610578565b60405161011d9190610d25565b60405180910390f35b6060600084905060006001858561013d9190610fb5565b6101479190610fe9565b67ffffffffffffffff8111156101605761015f610acd565b5b6040519080825280601f01601f1916602001820160405280156101925781602001600182028036833780820191505090505b50905060008590505b848111610220578281815181106101b5576101b461103f565b5b602001015160f81c60f81b8287836101cd9190610fb5565b815181106101de576101dd61103f565b5b60200101907effffffffffffffffffffffffffffffffffffffffffffffffffffffffffffff1916908160001a90535080806102189061106e565b91505061019b565b5080925050509392505050565b7f000000000000000000000000000000000000000000000000000000000000000073ffffffffffffffffffffffffffffffffffffffff163373ffffffffffffffffffffffffffffffffffffffff16146102df57337f00000000000000000000000000000000000000000000000000000000000000006040517f1cf993f40000000000000000000000000000000000000000000000000000000081526004016102d69291906110f8565b60405180910390fd5b6102e98282610700565b5050565b6060600460009054906101000a900473ffffffffffffffffffffffffffffffffffffffff1673ffffffffffffffffffffffffffffffffffffffff163373ffffffffffffffffffffffffffffffffffffffff1614610376576040517f4ca8886700000000000000000000000000000000000000000000000000000000815260040160405180910390fd5b6002805461038390611150565b80601f01602080910402602001604051908101604052809291908181526020018280546103af90611150565b80156103fc5780601f106103d1576101008083540402835291602001916103fc565b820191906000526020600020905b8154815290600101906020018083116103df57829003601f168201915b5050505050905090565b6000816001908051906020019061041e92919061092e565b5060007f000000000000000000000000000000000000000000000000000000000000000073ffffffffffffffffffffffffffffffffffffffff16635d3b1d307f00000000000000000000000000000000000000000000000000000000000000007f000000000000000000000000000000000000000000000000000000000000000060037f000000000000000000000000000000000000000000000000000000000000000060016040518663ffffffff1660e01b81526004016104e49594939291906111fa565b602060405180830381600087803b1580156104fe57600080fd5b505af1158015610512573d6000803e3d6000fd5b505050506040513d601f19601f820116820180604052508101906105369190611262565b90507f0cd21a41891ff04ecd9a8754bec97e2fb85d2a4e7694329d4dc364c796f23d06816040516105679190610ec3565b60405180910390a180915050919050565b6060604051602001610589906112c0565b60405160208183030381529060405280519060200120600384846040516105b19291906112fa565b90815260200160405180910390206040516020016105cf91906113a7565b60405160208183030381529060405280519060200120141561061d576040517f6714c71700000000000000000000000000000000000000000000000000000000815260040160405180910390fd5b6000600384846040516106319291906112fa565b9081526020016040518091039020805461064a90611150565b80601f016020809104026020016040519081016040528092919081815260200182805461067690611150565b80156106c35780601f10610698576101008083540402835291602001916106c3565b820191906000526020600020905b8154815290600101906020018083116106a657829003601f168201915b50505050509050600384846040516106dc9291906112fa565b908152602001604051809103902060006106f691906109b4565b8091505092915050565b6000816000815181106107165761071561103f565b5b60200260200101519050600061072b826107cd565b9050600061073c8260006005610126565b9050600160038260405161075091906113ef565b908152602001604051809103902090805461076a90611150565b6107759291906109f4565b50806002908051906020019061078c92919061092e565b507f0c7507c04d6afaf2236e3aa588594258f69742d49a2f114ab1d9fbe200e18afd85826040516107be929190611406565b60405180910390a15050505050565b60606000821415610815576040518060400160405280600181526020017f30000000000000000000000000000000000000000000000000000000000000008152509050610929565b600082905060005b600082146108475780806108309061106e565b915050600a826108409190611465565b915061081d565b60008167ffffffffffffffff81111561086357610862610acd565b5b6040519080825280601f01601f1916602001820160405280156108955781602001600182028036833780820191505090505b5090505b60008514610922576001826108ae9190610fb5565b9150600a856108bd9190611496565b60306108c99190610fe9565b60f81b8183815181106108df576108de61103f565b5b60200101907effffffffffffffffffffffffffffffffffffffffffffffffffffffffffffff1916908160001a905350600a8561091b9190611465565b9450610899565b8093505050505b919050565b82805461093a90611150565b90600052602060002090601f01602090048101928261095c57600085556109a3565b82601f1061097557805160ff19168380011785556109a3565b828001600101855582156109a3579182015b828111156109a2578251825591602001919060010190610987565b5b5090506109b09190610a81565b5090565b5080546109c090611150565b6000825580601f106109d257506109f1565b601f0160209004906000526020600020908101906109f09190610a81565b5b50565b828054610a0090611150565b90600052602060002090601f016020900481019282610a225760008555610a70565b82601f10610a335780548555610a70565b82800160010185558215610a7057600052602060002091601f016020900482015b82811115610a6f578254825591600101919060010190610a54565b5b509050610a7d9190610a81565b5090565b5b80821115610a9a576000816000905550600101610a82565b5090565b6000604051905090565b600080fd5b600080fd5b600080fd5b600080fd5b6000601f19601f8301169050919050565b7f4e487b7100000000000000000000000000000000000000000000000000000000600052604160045260246000fd5b610b0582610abc565b810181811067ffffffffffffffff82111715610b2457610b23610acd565b5b80604052505050565b6000610b37610a9e565b9050610b438282610afc565b919050565b600067ffffffffffffffff821115610b6357610b62610acd565b5b610b6c82610abc565b9050602081019050919050565b82818337600083830152505050565b6000610b9b610b9684610b48565b610b2d565b905082815260208101848484011115610bb757610bb6610ab7565b5b610bc2848285610b79565b509392505050565b600082601f830112610bdf57610bde610ab2565b5b8135610bef848260208601610b88565b91505092915050565b6000819050919050565b610c0b81610bf8565b8114610c1657600080fd5b50565b600081359050610c2881610c02565b92915050565b600080600060608486031215610c4757610c46610aa8565b5b600084013567ffffffffffffffff811115610c6557610c64610aad565b5b610c7186828701610bca565b9350506020610c8286828701610c19565b9250506040610c9386828701610c19565b9150509250925092565b600081519050919050565b600082825260208201905092915050565b60005b83811015610cd7578082015181840152602081019050610cbc565b83811115610ce6576000848401525b50505050565b6000610cf782610c9d565b610d018185610ca8565b9350610d11818560208601610cb9565b610d1a81610abc565b840191505092915050565b60006020820190508181036000830152610d3f8184610cec565b905092915050565b600067ffffffffffffffff821115610d6257610d61610acd565b5b602082029050602081019050919050565b600080fd5b6000610d8b610d8684610d47565b610b2d565b90508083825260208201905060208402830185811115610dae57610dad610d73565b5b835b81811015610dd75780610dc38882610c19565b845260208401935050602081019050610db0565b5050509392505050565b600082601f830112610df657610df5610ab2565b5b8135610e06848260208601610d78565b91505092915050565b60008060408385031215610e2657610e25610aa8565b5b6000610e3485828601610c19565b925050602083013567ffffffffffffffff811115610e5557610e54610aad565b5b610e6185828601610de1565b9150509250929050565b600060208284031215610e8157610e80610aa8565b5b600082013567ffffffffffffffff811115610e9f57610e9e610aad565b5b610eab84828501610bca565b91505092915050565b610ebd81610bf8565b82525050565b6000602082019050610ed86000830184610eb4565b92915050565b600080fd5b60008083601f840112610ef957610ef8610ab2565b5b8235905067ffffffffffffffff811115610f1657610f15610ede565b5b602083019150836001820283011115610f3257610f31610d73565b5b9250929050565b60008060208385031215610f5057610f4f610aa8565b5b600083013567ffffffffffffffff811115610f6e57610f6d610aad565b5b610f7a85828601610ee3565b92509250509250929050565b7f4e487b7100000000000000000000000000000000000000000000000000000000600052601160045260246000fd5b6000610fc082610bf8565b9150610fcb83610bf8565b925082821015610fde57610fdd610f86565b5b828203905092915050565b6000610ff482610bf8565b9150610fff83610bf8565b9250827fffffffffffffffffffffffffffffffffffffffffffffffffffffffffffffffff0382111561103457611033610f86565b5b828201905092915050565b7f4e487b7100000000000000000000000000000000000000000000000000000000600052603260045260246000fd5b600061107982610bf8565b91507fffffffffffffffffffffffffffffffffffffffffffffffffffffffffffffffff8214156110ac576110ab610f86565b5b600182019050919050565b600073ffffffffffffffffffffffffffffffffffffffff82169050919050565b60006110e2826110b7565b9050919050565b6110f2816110d7565b82525050565b600060408201905061110d60008301856110e9565b61111a60208301846110e9565b9392505050565b7f4e487b7100000000000000000000000000000000000000000000000000000000600052602260045260246000fd5b6000600282049050600182168061116857607f821691505b6020821081141561117c5761117b611121565b5b50919050565b6000819050919050565b61119581611182565b82525050565b600067ffffffffffffffff82169050919050565b6111b88161119b565b82525050565b600061ffff82169050919050565b6111d5816111be565b82525050565b600063ffffffff82169050919050565b6111f4816111db565b82525050565b600060a08201905061120f600083018861118c565b61121c60208301876111af565b61122960408301866111cc565b61123660608301856111eb565b61124360808301846111eb565b9695505050505050565b60008151905061125c81610c02565b92915050565b60006020828403121561127857611277610aa8565b5b60006112868482850161124d565b91505092915050565b600081905092915050565b50565b60006112aa60008361128f565b91506112b58261129a565b600082019050919050565b60006112cb8261129d565b9150819050919050565b60006112e1838561128f565b93506112ee838584610b79565b82840190509392505050565b60006113078284866112d5565b91508190509392505050565b60008190508160005260206000209050919050565b6000815461133581611150565b61133f818661128f565b9450600182166000811461135a576001811461136b5761139e565b60ff1983168652818601935061139e565b61137485611313565b60005b8381101561139657815481890152600182019150602081019050611377565b838801955050505b50505092915050565b60006113b38284611328565b915081905092915050565b60006113c982610c9d565b6113d3818561128f565b93506113e3818560208601610cb9565b80840191505092915050565b60006113fb82846113be565b915081905092915050565b600060408201905061141b6000830185610eb4565b818103602083015261142d8184610cec565b90509392505050565b7f4e487b7100000000000000000000000000000000000000000000000000000000600052601260045260246000fd5b600061147082610bf8565b915061147b83610bf8565b92508261148b5761148a611436565b5b828204905092915050565b60006114a182610bf8565b91506114ac83610bf8565b9250826114bc576114bb611436565b5b82820690509291505056fea2646970667358221220c2e49ad8d6e8982da2adc32a916af1d743a64858e960f4c492847930b5deffec64736f6c63430008090033",
  "devdoc": {
    "kind": "dev",
    "methods": {
      "substring(string,uint256,uint256)": {
        "details": "This function finds the substring."
      }
    },
    "version": 1
  },
  "userdoc": {
    "kind": "user",
    "methods": {},
    "version": 1
  },
  "storageLayout": {
    "storage": [
      {
        "astId": 400,
        "contract": "contracts/SendContract.sol:SendContract",
        "label": "lastRandomNum",
        "offset": 0,
        "slot": "0",
        "type": "t_string_storage"
      },
      {
        "astId": 402,
        "contract": "contracts/SendContract.sol:SendContract",
        "label": "fileHash",
        "offset": 0,
        "slot": "1",
        "type": "t_string_storage"
      },
      {
        "astId": 404,
        "contract": "contracts/SendContract.sol:SendContract",
        "label": "generatedrandomNum",
        "offset": 0,
        "slot": "2",
        "type": "t_string_storage"
      },
      {
        "astId": 408,
        "contract": "contracts/SendContract.sol:SendContract",
        "label": "randNumToFileHashMap",
        "offset": 0,
        "slot": "3",
        "type": "t_mapping(t_string_memory_ptr,t_string_storage)"
      },
      {
        "astId": 410,
        "contract": "contracts/SendContract.sol:SendContract",
        "label": "owner",
        "offset": 0,
        "slot": "4",
        "type": "t_address"
      }
    ],
    "types": {
      "t_address": {
        "encoding": "inplace",
        "label": "address",
        "numberOfBytes": "20"
      },
      "t_mapping(t_string_memory_ptr,t_string_storage)": {
        "encoding": "mapping",
        "key": "t_string_memory_ptr",
        "label": "mapping(string => string)",
        "numberOfBytes": "32",
        "value": "t_string_storage"
      },
      "t_string_memory_ptr": {
        "encoding": "bytes",
        "label": "string",
        "numberOfBytes": "32"
      },
      "t_string_storage": {
        "encoding": "bytes",
        "label": "string",
        "numberOfBytes": "32"
      }
    }
  }
}