{
  "address": "0x815fb7D79fdeaf1603053a422a2658FcE92C1E91",
  "abi": [
    {
      "inputs": [
        {
          "internalType": "address",
          "name": "vrfCoordinator",
          "type": "address"
        },
        {
          "internalType": "uint64",
          "name": "subscriptionId",
          "type": "uint64"
        },
        {
          "internalType": "bytes32",
          "name": "gasLane",
          "type": "bytes32"
        },
        {
          "internalType": "uint32",
          "name": "callbackGasLimit",
          "type": "uint32"
        }
      ],
      "stateMutability": "nonpayable",
      "type": "constructor"
    },
    {
      "inputs": [
        {
          "internalType": "address",
          "name": "have",
          "type": "address"
        },
        {
          "internalType": "address",
          "name": "want",
          "type": "address"
        }
      ],
      "name": "OnlyCoordinatorCanFulfill",
      "type": "error"
    },
    {
      "anonymous": false,
      "inputs": [
        {
          "indexed": true,
          "internalType": "uint256",
          "name": "requestId",
          "type": "uint256"
        }
      ],
      "name": "RequestedRandomCode",
      "type": "event"
    },
    {
      "inputs": [],
      "name": "getMapping",
      "outputs": [
        {
          "internalType": "string",
          "name": "",
          "type": "string"
        }
      ],
      "stateMutability": "view",
      "type": "function"
    },
    {
      "inputs": [
        {
          "internalType": "uint256",
          "name": "requestId",
          "type": "uint256"
        },
        {
          "internalType": "uint256[]",
          "name": "randomWords",
          "type": "uint256[]"
        }
      ],
      "name": "rawFulfillRandomWords",
      "outputs": [],
      "stateMutability": "nonpayable",
      "type": "function"
    },
    {
      "inputs": [
        {
          "internalType": "string",
          "name": "ipfsFileHash",
          "type": "string"
        }
      ],
      "name": "uploadedFile",
      "outputs": [],
      "stateMutability": "nonpayable",
      "type": "function"
    }
  ],
  "transactionHash": "0xb6330da6ee9abacb6844c3e65003a8b700931631426907ae35cf683115313a56",
  "args": [
    "0xAE975071Be8F8eE67addBC1A82488F1C24858067",
    "1972",
    "0x6e099d640cde6de9d40ac749b4b594126b0169747122711109c9985d47751f93",
    "500000"
  ],
  "numDeployments": 1,
  "solcInputHash": "e2770f0a3a24f99647fdf53ec180736b",
  "bytecode": "0x6101206040523480156200001257600080fd5b50604051620011b1380380620011b1833981810160405281019062000038919062000251565b838073ffffffffffffffffffffffffffffffffffffffff1660808173ffffffffffffffffffffffffffffffffffffffff16815250505033600360006101000a81548173ffffffffffffffffffffffffffffffffffffffff021916908373ffffffffffffffffffffffffffffffffffffffff1602179055508267ffffffffffffffff1660c08167ffffffffffffffff16815250508373ffffffffffffffffffffffffffffffffffffffff1660a08173ffffffffffffffffffffffffffffffffffffffff16815250508160e081815250508063ffffffff166101008163ffffffff168152505050505050620002c3565b600080fd5b600073ffffffffffffffffffffffffffffffffffffffff82169050919050565b600062000158826200012b565b9050919050565b6200016a816200014b565b81146200017657600080fd5b50565b6000815190506200018a816200015f565b92915050565b600067ffffffffffffffff82169050919050565b620001af8162000190565b8114620001bb57600080fd5b50565b600081519050620001cf81620001a4565b92915050565b6000819050919050565b620001ea81620001d5565b8114620001f657600080fd5b50565b6000815190506200020a81620001df565b92915050565b600063ffffffff82169050919050565b6200022b8162000210565b81146200023757600080fd5b50565b6000815190506200024b8162000220565b92915050565b600080600080608085870312156200026e576200026d62000126565b5b60006200027e8782880162000179565b94505060206200029187828801620001be565b9350506040620002a487828801620001f9565b9250506060620002b7878288016200023a565b91505092959194509250565b60805160a05160c05160e05161010051610ea46200030d60003960006101f2015260006101ae015260006101cf01526000610172015260008181609e015260f20152610ea46000f3fe608060405234801561001057600080fd5b50600436106100415760003560e01c80631fe543e3146100465780639914666914610062578063d5e350e31461007e575b600080fd5b610060600480360381019061005b91906108ba565b61009c565b005b61007c60048036038101906100779190610971565b61015c565b005b6100866102b9565b6040516100939190610a46565b60405180910390f35b7f000000000000000000000000000000000000000000000000000000000000000073ffffffffffffffffffffffffffffffffffffffff163373ffffffffffffffffffffffffffffffffffffffff161461014e57337f00000000000000000000000000000000000000000000000000000000000000006040517f1cf993f4000000000000000000000000000000000000000000000000000000008152600401610145929190610aa9565b60405180910390fd5b610158828261034b565b5050565b81816001919061016d929190610561565b5060007f000000000000000000000000000000000000000000000000000000000000000073ffffffffffffffffffffffffffffffffffffffff16635d3b1d307f00000000000000000000000000000000000000000000000000000000000000007f000000000000000000000000000000000000000000000000000000000000000060037f000000000000000000000000000000000000000000000000000000000000000060016040518663ffffffff1660e01b8152600401610233959493929190610b4a565b602060405180830381600087803b15801561024d57600080fd5b505af1158015610261573d6000803e3d6000fd5b505050506040513d601f19601f820116820180604052508101906102859190610bb2565b9050807fae0fc43a21093345f9ddc9178a299dfd45b5ccb483f86a3eb777b27c40e89ab360405160405180910390a2505050565b6060600080546102c890610c0e565b80601f01602080910402602001604051908101604052809291908181526020018280546102f490610c0e565b80156103415780601f1061031657610100808354040283529160200191610341565b820191906000526020600020905b81548152906001019060200180831161032457829003601f168201915b5050505050905090565b60008160008151811061036157610360610c40565b5b60200260200101519050600061037682610400565b90506001600260405161038890610cc6565b90815260200160405180910390209080546103a290610c0e565b6103ad9291906105e7565b506040518060400160405280600381526020017f3132330000000000000000000000000000000000000000000000000000000000815250600090805190602001906103f9929190610674565b5050505050565b60606000821415610448576040518060400160405280600181526020017f3000000000000000000000000000000000000000000000000000000000000000815250905061055c565b600082905060005b6000821461047a57808061046390610d0a565b915050600a826104739190610d82565b9150610450565b60008167ffffffffffffffff81111561049657610495610777565b5b6040519080825280601f01601f1916602001820160405280156104c85781602001600182028036833780820191505090505b5090505b60008514610555576001826104e19190610db3565b9150600a856104f09190610de7565b60306104fc9190610e18565b60f81b81838151811061051257610511610c40565b5b60200101907effffffffffffffffffffffffffffffffffffffffffffffffffffffffffffff1916908160001a905350600a8561054e9190610d82565b94506104cc565b8093505050505b919050565b82805461056d90610c0e565b90600052602060002090601f01602090048101928261058f57600085556105d6565b82601f106105a857803560ff19168380011785556105d6565b828001600101855582156105d6579182015b828111156105d55782358255916020019190600101906105ba565b5b5090506105e391906106fa565b5090565b8280546105f390610c0e565b90600052602060002090601f0160209004810192826106155760008555610663565b82601f106106265780548555610663565b8280016001018555821561066357600052602060002091601f016020900482015b82811115610662578254825591600101919060010190610647565b5b50905061067091906106fa565b5090565b82805461068090610c0e565b90600052602060002090601f0160209004810192826106a257600085556106e9565b82601f106106bb57805160ff19168380011785556106e9565b828001600101855582156106e9579182015b828111156106e85782518255916020019190600101906106cd565b5b5090506106f691906106fa565b5090565b5b808211156107135760008160009055506001016106fb565b5090565b6000604051905090565b600080fd5b600080fd5b6000819050919050565b61073e8161072b565b811461074957600080fd5b50565b60008135905061075b81610735565b92915050565b600080fd5b6000601f19601f8301169050919050565b7f4e487b7100000000000000000000000000000000000000000000000000000000600052604160045260246000fd5b6107af82610766565b810181811067ffffffffffffffff821117156107ce576107cd610777565b5b80604052505050565b60006107e1610717565b90506107ed82826107a6565b919050565b600067ffffffffffffffff82111561080d5761080c610777565b5b602082029050602081019050919050565b600080fd5b6000610836610831846107f2565b6107d7565b905080838252602082019050602084028301858111156108595761085861081e565b5b835b81811015610882578061086e888261074c565b84526020840193505060208101905061085b565b5050509392505050565b600082601f8301126108a1576108a0610761565b5b81356108b1848260208601610823565b91505092915050565b600080604083850312156108d1576108d0610721565b5b60006108df8582860161074c565b925050602083013567ffffffffffffffff811115610900576108ff610726565b5b61090c8582860161088c565b9150509250929050565b600080fd5b60008083601f84011261093157610930610761565b5b8235905067ffffffffffffffff81111561094e5761094d610916565b5b60208301915083600182028301111561096a5761096961081e565b5b9250929050565b6000806020838503121561098857610987610721565b5b600083013567ffffffffffffffff8111156109a6576109a5610726565b5b6109b28582860161091b565b92509250509250929050565b600081519050919050565b600082825260208201905092915050565b60005b838110156109f85780820151818401526020810190506109dd565b83811115610a07576000848401525b50505050565b6000610a18826109be565b610a2281856109c9565b9350610a328185602086016109da565b610a3b81610766565b840191505092915050565b60006020820190508181036000830152610a608184610a0d565b905092915050565b600073ffffffffffffffffffffffffffffffffffffffff82169050919050565b6000610a9382610a68565b9050919050565b610aa381610a88565b82525050565b6000604082019050610abe6000830185610a9a565b610acb6020830184610a9a565b9392505050565b6000819050919050565b610ae581610ad2565b82525050565b600067ffffffffffffffff82169050919050565b610b0881610aeb565b82525050565b600061ffff82169050919050565b610b2581610b0e565b82525050565b600063ffffffff82169050919050565b610b4481610b2b565b82525050565b600060a082019050610b5f6000830188610adc565b610b6c6020830187610aff565b610b796040830186610b1c565b610b866060830185610b3b565b610b936080830184610b3b565b9695505050505050565b600081519050610bac81610735565b92915050565b600060208284031215610bc857610bc7610721565b5b6000610bd684828501610b9d565b91505092915050565b7f4e487b7100000000000000000000000000000000000000000000000000000000600052602260045260246000fd5b60006002820490506001821680610c2657607f821691505b60208210811415610c3a57610c39610bdf565b5b50919050565b7f4e487b7100000000000000000000000000000000000000000000000000000000600052603260045260246000fd5b600081905092915050565b7f3132330000000000000000000000000000000000000000000000000000000000600082015250565b6000610cb0600383610c6f565b9150610cbb82610c7a565b600382019050919050565b6000610cd182610ca3565b9150819050919050565b7f4e487b7100000000000000000000000000000000000000000000000000000000600052601160045260246000fd5b6000610d158261072b565b91507fffffffffffffffffffffffffffffffffffffffffffffffffffffffffffffffff821415610d4857610d47610cdb565b5b600182019050919050565b7f4e487b7100000000000000000000000000000000000000000000000000000000600052601260045260246000fd5b6000610d8d8261072b565b9150610d988361072b565b925082610da857610da7610d53565b5b828204905092915050565b6000610dbe8261072b565b9150610dc98361072b565b925082821015610ddc57610ddb610cdb565b5b828203905092915050565b6000610df28261072b565b9150610dfd8361072b565b925082610e0d57610e0c610d53565b5b828206905092915050565b6000610e238261072b565b9150610e2e8361072b565b9250827fffffffffffffffffffffffffffffffffffffffffffffffffffffffffffffffff03821115610e6357610e62610cdb565b5b82820190509291505056fea2646970667358221220a231a9f054f9c89fe2b2c8d34b8b0189dc33f9413cc09c4841e0a98b2bac528264736f6c63430008090033",
  "devdoc": {
    "kind": "dev",
    "methods": {
      "uploadedFile(string)": {
        "details": "This function finds the substring."
      }
    },
    "version": 1
  },
  "userdoc": {
    "kind": "user",
    "methods": {},
    "version": 1
  },
  "storageLayout": {
    "storage": [
      {
        "astId": 1071,
        "contract": "contracts/SendContract.sol:SendContract",
        "label": "lastRandomNum",
        "offset": 0,
        "slot": "0",
        "type": "t_string_storage"
      },
      {
        "astId": 1073,
        "contract": "contracts/SendContract.sol:SendContract",
        "label": "fileHash",
        "offset": 0,
        "slot": "1",
        "type": "t_string_storage"
      },
      {
        "astId": 1077,
        "contract": "contracts/SendContract.sol:SendContract",
        "label": "randNumToFileHashMap",
        "offset": 0,
        "slot": "2",
        "type": "t_mapping(t_string_memory_ptr,t_string_storage)"
      },
      {
        "astId": 1079,
        "contract": "contracts/SendContract.sol:SendContract",
        "label": "owner",
        "offset": 0,
        "slot": "3",
        "type": "t_address"
      }
    ],
    "types": {
      "t_address": {
        "encoding": "inplace",
        "label": "address",
        "numberOfBytes": "20"
      },
      "t_mapping(t_string_memory_ptr,t_string_storage)": {
        "encoding": "mapping",
        "key": "t_string_memory_ptr",
        "label": "mapping(string => string)",
        "numberOfBytes": "32",
        "value": "t_string_storage"
      },
      "t_string_memory_ptr": {
        "encoding": "bytes",
        "label": "string",
        "numberOfBytes": "32"
      },
      "t_string_storage": {
        "encoding": "bytes",
        "label": "string",
        "numberOfBytes": "32"
      }
    }
  }
}