{
  "address": "0x57b26faB9Ed3b834a88812191604Ab7a481bab30",
  "abi": [
    {
      "inputs": [
        {
          "internalType": "address",
          "name": "vrfCoordinator",
          "type": "address"
        },
        {
          "internalType": "uint64",
          "name": "subscriptionId",
          "type": "uint64"
        },
        {
          "internalType": "bytes32",
          "name": "gasLane",
          "type": "bytes32"
        },
        {
          "internalType": "uint32",
          "name": "callbackGasLimit",
          "type": "uint32"
        }
      ],
      "stateMutability": "nonpayable",
      "type": "constructor"
    },
    {
      "inputs": [
        {
          "internalType": "address",
          "name": "have",
          "type": "address"
        },
        {
          "internalType": "address",
          "name": "want",
          "type": "address"
        }
      ],
      "name": "OnlyCoordinatorCanFulfill",
      "type": "error"
    },
    {
      "anonymous": false,
      "inputs": [
        {
          "indexed": false,
          "internalType": "uint256",
          "name": "requestId",
          "type": "uint256"
        },
        {
          "indexed": false,
          "internalType": "string",
          "name": "lastRandomNum",
          "type": "string"
        }
      ],
      "name": "RequestFulfilled",
      "type": "event"
    },
    {
      "anonymous": false,
      "inputs": [
        {
          "indexed": false,
          "internalType": "uint256",
          "name": "requestId",
          "type": "uint256"
        },
        {
          "indexed": false,
          "internalType": "uint32",
          "name": "numWords",
          "type": "uint32"
        }
      ],
      "name": "RequestSent",
      "type": "event"
    },
    {
      "inputs": [],
      "name": "getMapping",
      "outputs": [
        {
          "internalType": "string",
          "name": "",
          "type": "string"
        }
      ],
      "stateMutability": "view",
      "type": "function"
    },
    {
      "inputs": [
        {
          "internalType": "uint256",
          "name": "requestId",
          "type": "uint256"
        },
        {
          "internalType": "uint256[]",
          "name": "randomWords",
          "type": "uint256[]"
        }
      ],
      "name": "rawFulfillRandomWords",
      "outputs": [],
      "stateMutability": "nonpayable",
      "type": "function"
    },
    {
      "inputs": [
        {
          "internalType": "string",
          "name": "str",
          "type": "string"
        },
        {
          "internalType": "uint256",
          "name": "startIndex",
          "type": "uint256"
        },
        {
          "internalType": "uint256",
          "name": "endIndex",
          "type": "uint256"
        }
      ],
      "name": "substring",
      "outputs": [
        {
          "internalType": "string",
          "name": "",
          "type": "string"
        }
      ],
      "stateMutability": "pure",
      "type": "function"
    },
    {
      "inputs": [
        {
          "internalType": "string",
          "name": "ipfsFileHash",
          "type": "string"
        }
      ],
      "name": "uploadedFile",
      "outputs": [
        {
          "internalType": "uint256",
          "name": "",
          "type": "uint256"
        }
      ],
      "stateMutability": "nonpayable",
      "type": "function"
    }
  ],
  "transactionHash": "0xd4e9888d3454679f6b50158d4202c32b63df466baa1c491d4c1c7958c9be2360",
  "args": [
    "0x7a1BaC17Ccc5b313516C5E16fb24f7659aA5ebed",
    "1972",
    "0x4b09e658ed251bcafeebbc69400383d49f344ace09b9576fe248bb02c003fe9f",
    "2500000"
  ],
  "numDeployments": 8,
  "solcInputHash": "9f6b23eff2edf2f887314371ba95fa18",
  "bytecode": "0x6101206040523480156200001257600080fd5b506040516200155938038062001559833981810160405281019062000038919062000251565b838073ffffffffffffffffffffffffffffffffffffffff1660808173ffffffffffffffffffffffffffffffffffffffff16815250505033600360006101000a81548173ffffffffffffffffffffffffffffffffffffffff021916908373ffffffffffffffffffffffffffffffffffffffff1602179055508267ffffffffffffffff1660c08167ffffffffffffffff16815250508373ffffffffffffffffffffffffffffffffffffffff1660a08173ffffffffffffffffffffffffffffffffffffffff16815250508160e081815250508063ffffffff166101008163ffffffff168152505050505050620002c3565b600080fd5b600073ffffffffffffffffffffffffffffffffffffffff82169050919050565b600062000158826200012b565b9050919050565b6200016a816200014b565b81146200017657600080fd5b50565b6000815190506200018a816200015f565b92915050565b600067ffffffffffffffff82169050919050565b620001af8162000190565b8114620001bb57600080fd5b50565b600081519050620001cf81620001a4565b92915050565b6000819050919050565b620001ea81620001d5565b8114620001f657600080fd5b50565b6000815190506200020a81620001df565b92915050565b600063ffffffff82169050919050565b6200022b8162000210565b81146200023757600080fd5b50565b6000815190506200024b8162000220565b92915050565b600080600080608085870312156200026e576200026d62000126565b5b60006200027e8782880162000179565b94505060206200029187828801620001be565b9350506040620002a487828801620001f9565b9250506060620002b7878288016200023a565b91505092959194509250565b60805160a05160c05160e0516101005161124a6200030f600039600061034a0152600061030601526000610327015260006102ca0152600081816101f40152610248015261124a6000f3fe608060405234801561001057600080fd5b506004361061004c5760003560e01c80631dcd9b55146100515780631fe543e314610081578063991466691461009d578063d5e350e3146100cd575b600080fd5b61006b60048036038101906100669190610a2a565b6100eb565b6040516100789190610b21565b60405180910390f35b61009b60048036038101906100969190610c0b565b6101f2565b005b6100b760048036038101906100b29190610cc2565b6102b2565b6040516100c49190610d1e565b60405180910390f35b6100d5610423565b6040516100e29190610b21565b60405180910390f35b606060008490506000600185856101029190610d68565b61010c9190610d9c565b67ffffffffffffffff811115610125576101246108c9565b5b6040519080825280601f01601f1916602001820160405280156101575781602001600182028036833780820191505090505b50905060008590505b8481116101e55782818151811061017a57610179610df2565b5b602001015160f81c60f81b8287836101929190610d68565b815181106101a3576101a2610df2565b5b60200101907effffffffffffffffffffffffffffffffffffffffffffffffffffffffffffff1916908160001a90535080806101dd90610e21565b915050610160565b5080925050509392505050565b7f000000000000000000000000000000000000000000000000000000000000000073ffffffffffffffffffffffffffffffffffffffff163373ffffffffffffffffffffffffffffffffffffffff16146102a457337f00000000000000000000000000000000000000000000000000000000000000006040517f1cf993f400000000000000000000000000000000000000000000000000000000815260040161029b929190610eab565b60405180910390fd5b6102ae82826104b5565b5050565b60008282600191906102c59291906106e4565b5060007f000000000000000000000000000000000000000000000000000000000000000073ffffffffffffffffffffffffffffffffffffffff16635d3b1d307f00000000000000000000000000000000000000000000000000000000000000007f000000000000000000000000000000000000000000000000000000000000000060037f000000000000000000000000000000000000000000000000000000000000000060016040518663ffffffff1660e01b815260040161038b959493929190610f4c565b602060405180830381600087803b1580156103a557600080fd5b505af11580156103b9573d6000803e3d6000fd5b505050506040513d601f19601f820116820180604052508101906103dd9190610fb4565b90507fcc58b13ad3eab50626c6a6300b1d139cd6ebb1688a7cced9461c2f7e762665ee816001604051610411929190610fe1565b60405180910390a18091505092915050565b60606000805461043290611039565b80601f016020809104026020016040519081016040528092919081815260200182805461045e90611039565b80156104ab5780601f10610480576101008083540402835291602001916104ab565b820191906000526020600020905b81548152906001019060200180831161048e57829003601f168201915b5050505050905090565b6000816000815181106104cb576104ca610df2565b5b6020026020010151905060006104e082610583565b905060006104f182600060056100eb565b9050600160028260405161050591906110a7565b908152602001604051809103902090805461051f90611039565b61052a92919061076a565b5080600090805190602001906105419291906107f7565b507f0c7507c04d6afaf2236e3aa588594258f69742d49a2f114ab1d9fbe200e18afd856000604051610574929190611153565b60405180910390a15050505050565b606060008214156105cb576040518060400160405280600181526020017f300000000000000000000000000000000000000000000000000000000000000081525090506106df565b600082905060005b600082146105fd5780806105e690610e21565b915050600a826105f691906111b2565b91506105d3565b60008167ffffffffffffffff811115610619576106186108c9565b5b6040519080825280601f01601f19166020018201604052801561064b5781602001600182028036833780820191505090505b5090505b600085146106d8576001826106649190610d68565b9150600a8561067391906111e3565b603061067f9190610d9c565b60f81b81838151811061069557610694610df2565b5b60200101907effffffffffffffffffffffffffffffffffffffffffffffffffffffffffffff1916908160001a905350600a856106d191906111b2565b945061064f565b8093505050505b919050565b8280546106f090611039565b90600052602060002090601f0160209004810192826107125760008555610759565b82601f1061072b57803560ff1916838001178555610759565b82800160010185558215610759579182015b8281111561075857823582559160200191906001019061073d565b5b509050610766919061087d565b5090565b82805461077690611039565b90600052602060002090601f01602090048101928261079857600085556107e6565b82601f106107a957805485556107e6565b828001600101855582156107e657600052602060002091601f016020900482015b828111156107e55782548255916001019190600101906107ca565b5b5090506107f3919061087d565b5090565b82805461080390611039565b90600052602060002090601f016020900481019282610825576000855561086c565b82601f1061083e57805160ff191683800117855561086c565b8280016001018555821561086c579182015b8281111561086b578251825591602001919060010190610850565b5b509050610879919061087d565b5090565b5b8082111561089657600081600090555060010161087e565b5090565b6000604051905090565b600080fd5b600080fd5b600080fd5b600080fd5b6000601f19601f8301169050919050565b7f4e487b7100000000000000000000000000000000000000000000000000000000600052604160045260246000fd5b610901826108b8565b810181811067ffffffffffffffff821117156109205761091f6108c9565b5b80604052505050565b600061093361089a565b905061093f82826108f8565b919050565b600067ffffffffffffffff82111561095f5761095e6108c9565b5b610968826108b8565b9050602081019050919050565b82818337600083830152505050565b600061099761099284610944565b610929565b9050828152602081018484840111156109b3576109b26108b3565b5b6109be848285610975565b509392505050565b600082601f8301126109db576109da6108ae565b5b81356109eb848260208601610984565b91505092915050565b6000819050919050565b610a07816109f4565b8114610a1257600080fd5b50565b600081359050610a24816109fe565b92915050565b600080600060608486031215610a4357610a426108a4565b5b600084013567ffffffffffffffff811115610a6157610a606108a9565b5b610a6d868287016109c6565b9350506020610a7e86828701610a15565b9250506040610a8f86828701610a15565b9150509250925092565b600081519050919050565b600082825260208201905092915050565b60005b83811015610ad3578082015181840152602081019050610ab8565b83811115610ae2576000848401525b50505050565b6000610af382610a99565b610afd8185610aa4565b9350610b0d818560208601610ab5565b610b16816108b8565b840191505092915050565b60006020820190508181036000830152610b3b8184610ae8565b905092915050565b600067ffffffffffffffff821115610b5e57610b5d6108c9565b5b602082029050602081019050919050565b600080fd5b6000610b87610b8284610b43565b610929565b90508083825260208201905060208402830185811115610baa57610ba9610b6f565b5b835b81811015610bd35780610bbf8882610a15565b845260208401935050602081019050610bac565b5050509392505050565b600082601f830112610bf257610bf16108ae565b5b8135610c02848260208601610b74565b91505092915050565b60008060408385031215610c2257610c216108a4565b5b6000610c3085828601610a15565b925050602083013567ffffffffffffffff811115610c5157610c506108a9565b5b610c5d85828601610bdd565b9150509250929050565b600080fd5b60008083601f840112610c8257610c816108ae565b5b8235905067ffffffffffffffff811115610c9f57610c9e610c67565b5b602083019150836001820283011115610cbb57610cba610b6f565b5b9250929050565b60008060208385031215610cd957610cd86108a4565b5b600083013567ffffffffffffffff811115610cf757610cf66108a9565b5b610d0385828601610c6c565b92509250509250929050565b610d18816109f4565b82525050565b6000602082019050610d336000830184610d0f565b92915050565b7f4e487b7100000000000000000000000000000000000000000000000000000000600052601160045260246000fd5b6000610d73826109f4565b9150610d7e836109f4565b925082821015610d9157610d90610d39565b5b828203905092915050565b6000610da7826109f4565b9150610db2836109f4565b9250827fffffffffffffffffffffffffffffffffffffffffffffffffffffffffffffffff03821115610de757610de6610d39565b5b828201905092915050565b7f4e487b7100000000000000000000000000000000000000000000000000000000600052603260045260246000fd5b6000610e2c826109f4565b91507fffffffffffffffffffffffffffffffffffffffffffffffffffffffffffffffff821415610e5f57610e5e610d39565b5b600182019050919050565b600073ffffffffffffffffffffffffffffffffffffffff82169050919050565b6000610e9582610e6a565b9050919050565b610ea581610e8a565b82525050565b6000604082019050610ec06000830185610e9c565b610ecd6020830184610e9c565b9392505050565b6000819050919050565b610ee781610ed4565b82525050565b600067ffffffffffffffff82169050919050565b610f0a81610eed565b82525050565b600061ffff82169050919050565b610f2781610f10565b82525050565b600063ffffffff82169050919050565b610f4681610f2d565b82525050565b600060a082019050610f616000830188610ede565b610f6e6020830187610f01565b610f7b6040830186610f1e565b610f886060830185610f3d565b610f956080830184610f3d565b9695505050505050565b600081519050610fae816109fe565b92915050565b600060208284031215610fca57610fc96108a4565b5b6000610fd884828501610f9f565b91505092915050565b6000604082019050610ff66000830185610d0f565b6110036020830184610f3d565b9392505050565b7f4e487b7100000000000000000000000000000000000000000000000000000000600052602260045260246000fd5b6000600282049050600182168061105157607f821691505b602082108114156110655761106461100a565b5b50919050565b600081905092915050565b600061108182610a99565b61108b818561106b565b935061109b818560208601610ab5565b80840191505092915050565b60006110b38284611076565b915081905092915050565b60008190508160005260206000209050919050565b600081546110e081611039565b6110ea8186610aa4565b9450600182166000811461110557600181146111175761114a565b60ff198316865260208601935061114a565b611120856110be565b60005b8381101561114257815481890152600182019150602081019050611123565b808801955050505b50505092915050565b60006040820190506111686000830185610d0f565b818103602083015261117a81846110d3565b90509392505050565b7f4e487b7100000000000000000000000000000000000000000000000000000000600052601260045260246000fd5b60006111bd826109f4565b91506111c8836109f4565b9250826111d8576111d7611183565b5b828204905092915050565b60006111ee826109f4565b91506111f9836109f4565b92508261120957611208611183565b5b82820690509291505056fea26469706673582212204c8712686716ebbb42de96947f21110d4e72415119ee6289d225a6ff0dcd7cc864736f6c63430008090033",
  "devdoc": {
    "kind": "dev",
    "methods": {
      "substring(string,uint256,uint256)": {
        "details": "This function finds the substring."
      }
    },
    "version": 1
  },
  "userdoc": {
    "kind": "user",
    "methods": {},
    "version": 1
  },
  "storageLayout": {
    "storage": [
      {
        "astId": 396,
        "contract": "contracts/SendContract.sol:SendContract",
        "label": "lastRandomNum",
        "offset": 0,
        "slot": "0",
        "type": "t_string_storage"
      },
      {
        "astId": 398,
        "contract": "contracts/SendContract.sol:SendContract",
        "label": "fileHash",
        "offset": 0,
        "slot": "1",
        "type": "t_string_storage"
      },
      {
        "astId": 402,
        "contract": "contracts/SendContract.sol:SendContract",
        "label": "randNumToFileHashMap",
        "offset": 0,
        "slot": "2",
        "type": "t_mapping(t_string_memory_ptr,t_string_storage)"
      },
      {
        "astId": 404,
        "contract": "contracts/SendContract.sol:SendContract",
        "label": "owner",
        "offset": 0,
        "slot": "3",
        "type": "t_address"
      }
    ],
    "types": {
      "t_address": {
        "encoding": "inplace",
        "label": "address",
        "numberOfBytes": "20"
      },
      "t_mapping(t_string_memory_ptr,t_string_storage)": {
        "encoding": "mapping",
        "key": "t_string_memory_ptr",
        "label": "mapping(string => string)",
        "numberOfBytes": "32",
        "value": "t_string_storage"
      },
      "t_string_memory_ptr": {
        "encoding": "bytes",
        "label": "string",
        "numberOfBytes": "32"
      },
      "t_string_storage": {
        "encoding": "bytes",
        "label": "string",
        "numberOfBytes": "32"
      }
    }
  }
}