{
  "address": "0x7abf2765fcA2674976a17343E8111e23e1e19bb2",
  "abi": [
    {
      "inputs": [
        {
          "internalType": "address",
          "name": "vrfCoordinator",
          "type": "address"
        },
        {
          "internalType": "uint64",
          "name": "subscriptionId",
          "type": "uint64"
        },
        {
          "internalType": "bytes32",
          "name": "gasLane",
          "type": "bytes32"
        },
        {
          "internalType": "uint32",
          "name": "callbackGasLimit",
          "type": "uint32"
        }
      ],
      "stateMutability": "nonpayable",
      "type": "constructor"
    },
    {
      "inputs": [],
      "name": "AccessDenied",
      "type": "error"
    },
    {
      "inputs": [],
      "name": "FileRetrievedAlready",
      "type": "error"
    },
    {
      "inputs": [
        {
          "internalType": "address",
          "name": "have",
          "type": "address"
        },
        {
          "internalType": "address",
          "name": "want",
          "type": "address"
        }
      ],
      "name": "OnlyCoordinatorCanFulfill",
      "type": "error"
    },
    {
      "anonymous": false,
      "inputs": [
        {
          "indexed": false,
          "internalType": "string",
          "name": "fileHash",
          "type": "string"
        }
      ],
      "name": "FileRetrieved",
      "type": "event"
    },
    {
      "anonymous": false,
      "inputs": [
        {
          "indexed": false,
          "internalType": "string",
          "name": "randomNum",
          "type": "string"
        }
      ],
      "name": "RequestFulfilled",
      "type": "event"
    },
    {
      "anonymous": false,
      "inputs": [
        {
          "indexed": false,
          "internalType": "uint256",
          "name": "requestId",
          "type": "uint256"
        }
      ],
      "name": "RequestSent",
      "type": "event"
    },
    {
      "inputs": [
        {
          "internalType": "string",
          "name": "randNum",
          "type": "string"
        }
      ],
      "name": "getFile",
      "outputs": [
        {
          "internalType": "string",
          "name": "",
          "type": "string"
        }
      ],
      "stateMutability": "nonpayable",
      "type": "function"
    },
    {
      "inputs": [
        {
          "internalType": "string",
          "name": "randNum",
          "type": "string"
        }
      ],
      "name": "getFileHash",
      "outputs": [
        {
          "internalType": "string",
          "name": "",
          "type": "string"
        }
      ],
      "stateMutability": "view",
      "type": "function"
    },
    {
      "inputs": [],
      "name": "getRandomNum",
      "outputs": [
        {
          "internalType": "string",
          "name": "",
          "type": "string"
        }
      ],
      "stateMutability": "view",
      "type": "function"
    },
    {
      "inputs": [
        {
          "internalType": "uint256",
          "name": "requestId",
          "type": "uint256"
        },
        {
          "internalType": "uint256[]",
          "name": "randomWords",
          "type": "uint256[]"
        }
      ],
      "name": "rawFulfillRandomWords",
      "outputs": [],
      "stateMutability": "nonpayable",
      "type": "function"
    },
    {
      "inputs": [
        {
          "internalType": "string",
          "name": "str",
          "type": "string"
        },
        {
          "internalType": "uint256",
          "name": "startIndex",
          "type": "uint256"
        },
        {
          "internalType": "uint256",
          "name": "endIndex",
          "type": "uint256"
        }
      ],
      "name": "substring",
      "outputs": [
        {
          "internalType": "string",
          "name": "",
          "type": "string"
        }
      ],
      "stateMutability": "pure",
      "type": "function"
    },
    {
      "inputs": [
        {
          "internalType": "string",
          "name": "ipfsFileHash",
          "type": "string"
        }
      ],
      "name": "uploadedFile",
      "outputs": [],
      "stateMutability": "nonpayable",
      "type": "function"
    }
  ],
  "transactionHash": "0x975b9b317ef61361a072b96d7f3ab94b9e607ec46e8425a9288e22e02c2e5484",
  "args": [
    "0x2Ca8E0C643bDe4C2E08ab1fA0da3401AdAD7734D",
    "2189",
    "0x79d3d8832d904592c0bf9818b621522c988bb8b0c05cdc3b15aea1b6e8db0c15",
    "500000"
  ],
  "numDeployments": 11,
  "solcInputHash": "0a54431e97b2f5c480bc86da449ee924",
  "bytecode": "0x6101206040523480156200001257600080fd5b5060405162001b6b38038062001b6b833981810160405281019062000038919062000251565b838073ffffffffffffffffffffffffffffffffffffffff1660808173ffffffffffffffffffffffffffffffffffffffff16815250505033600460006101000a81548173ffffffffffffffffffffffffffffffffffffffff021916908373ffffffffffffffffffffffffffffffffffffffff1602179055508267ffffffffffffffff1660c08167ffffffffffffffff16815250508373ffffffffffffffffffffffffffffffffffffffff1660a08173ffffffffffffffffffffffffffffffffffffffff16815250508160e081815250508063ffffffff166101008163ffffffff168152505050505050620002c3565b600080fd5b600073ffffffffffffffffffffffffffffffffffffffff82169050919050565b600062000158826200012b565b9050919050565b6200016a816200014b565b81146200017657600080fd5b50565b6000815190506200018a816200015f565b92915050565b600067ffffffffffffffff82169050919050565b620001af8162000190565b8114620001bb57600080fd5b50565b600081519050620001cf81620001a4565b92915050565b6000819050919050565b620001ea81620001d5565b8114620001f657600080fd5b50565b6000815190506200020a81620001df565b92915050565b600063ffffffff82169050919050565b6200022b8162000210565b81146200023757600080fd5b50565b6000815190506200024b8162000220565b92915050565b600080600080608085870312156200026e576200026d62000126565b5b60006200027e8782880162000179565b94505060206200029187828801620001be565b9350506040620002a487828801620001f9565b9250506060620002b7878288016200023a565b91505092959194509250565b60805160a05160c05160e0516101005161185c6200030f600039600061055b0152600061051701526000610538015260006104db01526000818161025601526102aa015261185c6000f3fe608060405234801561001057600080fd5b50600436106100625760003560e01c80631dcd9b55146100675780631fe543e31461009757806325b814f4146100b357806399146669146100d1578063e0876aa8146100ed578063f880680b1461011d575b600080fd5b610081600480360381019061007c9190610fbd565b61014d565b60405161008e91906110b4565b60405180910390f35b6100b160048036038101906100ac919061119e565b610254565b005b6100bb610314565b6040516100c891906110b4565b60405180910390f35b6100eb60048036038101906100e691906111fa565b6104c0565b005b6101076004803603810190610102919061129e565b61062b565b60405161011491906110b4565b60405180910390f35b610137600480360381019061013291906111fa565b610898565b60405161014491906110b4565b60405180910390f35b60606000849050600060018585610164919061131a565b61016e919061134e565b67ffffffffffffffff81111561018757610186610e5c565b5b6040519080825280601f01601f1916602001820160405280156101b95781602001600182028036833780820191505090505b50905060008590505b848111610247578281815181106101dc576101db6113a4565b5b602001015160f81c60f81b8287836101f4919061131a565b81518110610205576102046113a4565b5b60200101907effffffffffffffffffffffffffffffffffffffffffffffffffffffffffffff1916908160001a905350808061023f906113d3565b9150506101c2565b5080925050509392505050565b7f000000000000000000000000000000000000000000000000000000000000000073ffffffffffffffffffffffffffffffffffffffff163373ffffffffffffffffffffffffffffffffffffffff161461030657337f00000000000000000000000000000000000000000000000000000000000000006040517f1cf993f40000000000000000000000000000000000000000000000000000000081526004016102fd92919061145d565b60405180910390fd5b61031082826109cf565b5050565b6060600460009054906101000a900473ffffffffffffffffffffffffffffffffffffffff1673ffffffffffffffffffffffffffffffffffffffff163373ffffffffffffffffffffffffffffffffffffffff161461039d576040517f4ca8886700000000000000000000000000000000000000000000000000000000815260040160405180910390fd5b610430600280546103ad906114b5565b80601f01602080910402602001604051908101604052809291908181526020018280546103d9906114b5565b80156104265780601f106103fb57610100808354040283529160200191610426565b820191906000526020600020905b81548152906001019060200180831161040957829003601f168201915b5050505050610a9a565b6002805461043d906114b5565b80601f0160208091040260200160405190810160405280929190818152602001828054610469906114b5565b80156104b65780601f1061048b576101008083540402835291602001916104b6565b820191906000526020600020905b81548152906001019060200180831161049957829003601f168201915b5050505050905090565b80600190805190602001906104d6929190610cbd565b5060007f000000000000000000000000000000000000000000000000000000000000000073ffffffffffffffffffffffffffffffffffffffff16635d3b1d307f00000000000000000000000000000000000000000000000000000000000000007f000000000000000000000000000000000000000000000000000000000000000060037f000000000000000000000000000000000000000000000000000000000000000060016040518663ffffffff1660e01b815260040161059c95949392919061155f565b602060405180830381600087803b1580156105b657600080fd5b505af11580156105ca573d6000803e3d6000fd5b505050506040513d601f19601f820116820180604052508101906105ee91906115c7565b90507f0cd21a41891ff04ecd9a8754bec97e2fb85d2a4e7694329d4dc364c796f23d068160405161061f9190611603565b60405180910390a15050565b60606106de6003848460405161064292919061164e565b9081526020016040518091039020805461065b906114b5565b80601f0160208091040260200160405190810160405280929190818152602001828054610687906114b5565b80156106d45780601f106106a9576101008083540402835291602001916106d4565b820191906000526020600020905b8154815290600101906020018083116106b757829003601f168201915b5050505050610a9a565b6040516020016106ed9061168d565b604051602081830303815290604052805190602001206003848460405161071592919061164e565b90815260200160405180910390206040516020016107339190611736565b604051602081830303815290604052805190602001201415610781576040517f6714c71700000000000000000000000000000000000000000000000000000000815260040160405180910390fd5b60006003848460405161079592919061164e565b908152602001604051809103902080546107ae906114b5565b80601f01602080910402602001604051908101604052809291908181526020018280546107da906114b5565b80156108275780601f106107fc57610100808354040283529160200191610827565b820191906000526020600020905b81548152906001019060200180831161080a57829003601f168201915b505050505090506003848460405161084092919061164e565b9081526020016040518091039020600061085a9190610d43565b7f462a69cd26fa2a380c04628d0562816f27dfaa911feddc60f290a07c33d805468160405161088991906110b4565b60405180910390a15092915050565b6060600460009054906101000a900473ffffffffffffffffffffffffffffffffffffffff1673ffffffffffffffffffffffffffffffffffffffff163373ffffffffffffffffffffffffffffffffffffffff1614610921576040517f4ca8886700000000000000000000000000000000000000000000000000000000815260040160405180910390fd5b600382604051610931919061177e565b9081526020016040518091039020805461094a906114b5565b80601f0160208091040260200160405190810160405280929190818152602001828054610976906114b5565b80156109c35780601f10610998576101008083540402835291602001916109c3565b820191906000526020600020905b8154815290600101906020018083116109a657829003601f168201915b50505050509050919050565b6000816000815181106109e5576109e46113a4565b5b6020026020010151905060006109fa82610b33565b90506000610a0b826000600561014d565b90506001600382604051610a1f919061177e565b9081526020016040518091039020908054610a39906114b5565b610a44929190610d83565b508060029080519060200190610a5b929190610cbd565b507f083542d7532363ebf1f5ddd435e82f33c12251d61bae6088bacc46b57bea382281604051610a8b91906110b4565b60405180910390a15050505050565b610b3081604051602401610aae91906110b4565b6040516020818303038152906040527f41304fac000000000000000000000000000000000000000000000000000000007bffffffffffffffffffffffffffffffffffffffffffffffffffffffff19166020820180517bffffffffffffffffffffffffffffffffffffffffffffffffffffffff8381831617835250505050610c94565b50565b60606000821415610b7b576040518060400160405280600181526020017f30000000000000000000000000000000000000000000000000000000000000008152509050610c8f565b600082905060005b60008214610bad578080610b96906113d3565b915050600a82610ba691906117c4565b9150610b83565b60008167ffffffffffffffff811115610bc957610bc8610e5c565b5b6040519080825280601f01601f191660200182016040528015610bfb5781602001600182028036833780820191505090505b5090505b60008514610c8857600182610c14919061131a565b9150600a85610c2391906117f5565b6030610c2f919061134e565b60f81b818381518110610c4557610c446113a4565b5b60200101907effffffffffffffffffffffffffffffffffffffffffffffffffffffffffffff1916908160001a905350600a85610c8191906117c4565b9450610bff565b8093505050505b919050565b60008151905060006a636f6e736f6c652e6c6f679050602083016000808483855afa5050505050565b828054610cc9906114b5565b90600052602060002090601f016020900481019282610ceb5760008555610d32565b82601f10610d0457805160ff1916838001178555610d32565b82800160010185558215610d32579182015b82811115610d31578251825591602001919060010190610d16565b5b509050610d3f9190610e10565b5090565b508054610d4f906114b5565b6000825580601f10610d615750610d80565b601f016020900490600052602060002090810190610d7f9190610e10565b5b50565b828054610d8f906114b5565b90600052602060002090601f016020900481019282610db15760008555610dff565b82601f10610dc25780548555610dff565b82800160010185558215610dff57600052602060002091601f016020900482015b82811115610dfe578254825591600101919060010190610de3565b5b509050610e0c9190610e10565b5090565b5b80821115610e29576000816000905550600101610e11565b5090565b6000604051905090565b600080fd5b600080fd5b600080fd5b600080fd5b6000601f19601f8301169050919050565b7f4e487b7100000000000000000000000000000000000000000000000000000000600052604160045260246000fd5b610e9482610e4b565b810181811067ffffffffffffffff82111715610eb357610eb2610e5c565b5b80604052505050565b6000610ec6610e2d565b9050610ed28282610e8b565b919050565b600067ffffffffffffffff821115610ef257610ef1610e5c565b5b610efb82610e4b565b9050602081019050919050565b82818337600083830152505050565b6000610f2a610f2584610ed7565b610ebc565b905082815260208101848484011115610f4657610f45610e46565b5b610f51848285610f08565b509392505050565b600082601f830112610f6e57610f6d610e41565b5b8135610f7e848260208601610f17565b91505092915050565b6000819050919050565b610f9a81610f87565b8114610fa557600080fd5b50565b600081359050610fb781610f91565b92915050565b600080600060608486031215610fd657610fd5610e37565b5b600084013567ffffffffffffffff811115610ff457610ff3610e3c565b5b61100086828701610f59565b935050602061101186828701610fa8565b925050604061102286828701610fa8565b9150509250925092565b600081519050919050565b600082825260208201905092915050565b60005b8381101561106657808201518184015260208101905061104b565b83811115611075576000848401525b50505050565b60006110868261102c565b6110908185611037565b93506110a0818560208601611048565b6110a981610e4b565b840191505092915050565b600060208201905081810360008301526110ce818461107b565b905092915050565b600067ffffffffffffffff8211156110f1576110f0610e5c565b5b602082029050602081019050919050565b600080fd5b600061111a611115846110d6565b610ebc565b9050808382526020820190506020840283018581111561113d5761113c611102565b5b835b8181101561116657806111528882610fa8565b84526020840193505060208101905061113f565b5050509392505050565b600082601f83011261118557611184610e41565b5b8135611195848260208601611107565b91505092915050565b600080604083850312156111b5576111b4610e37565b5b60006111c385828601610fa8565b925050602083013567ffffffffffffffff8111156111e4576111e3610e3c565b5b6111f085828601611170565b9150509250929050565b6000602082840312156112105761120f610e37565b5b600082013567ffffffffffffffff81111561122e5761122d610e3c565b5b61123a84828501610f59565b91505092915050565b600080fd5b60008083601f84011261125e5761125d610e41565b5b8235905067ffffffffffffffff81111561127b5761127a611243565b5b60208301915083600182028301111561129757611296611102565b5b9250929050565b600080602083850312156112b5576112b4610e37565b5b600083013567ffffffffffffffff8111156112d3576112d2610e3c565b5b6112df85828601611248565b92509250509250929050565b7f4e487b7100000000000000000000000000000000000000000000000000000000600052601160045260246000fd5b600061132582610f87565b915061133083610f87565b925082821015611343576113426112eb565b5b828203905092915050565b600061135982610f87565b915061136483610f87565b9250827fffffffffffffffffffffffffffffffffffffffffffffffffffffffffffffffff03821115611399576113986112eb565b5b828201905092915050565b7f4e487b7100000000000000000000000000000000000000000000000000000000600052603260045260246000fd5b60006113de82610f87565b91507fffffffffffffffffffffffffffffffffffffffffffffffffffffffffffffffff821415611411576114106112eb565b5b600182019050919050565b600073ffffffffffffffffffffffffffffffffffffffff82169050919050565b60006114478261141c565b9050919050565b6114578161143c565b82525050565b6000604082019050611472600083018561144e565b61147f602083018461144e565b9392505050565b7f4e487b7100000000000000000000000000000000000000000000000000000000600052602260045260246000fd5b600060028204905060018216806114cd57607f821691505b602082108114156114e1576114e0611486565b5b50919050565b6000819050919050565b6114fa816114e7565b82525050565b600067ffffffffffffffff82169050919050565b61151d81611500565b82525050565b600061ffff82169050919050565b61153a81611523565b82525050565b600063ffffffff82169050919050565b61155981611540565b82525050565b600060a08201905061157460008301886114f1565b6115816020830187611514565b61158e6040830186611531565b61159b6060830185611550565b6115a86080830184611550565b9695505050505050565b6000815190506115c181610f91565b92915050565b6000602082840312156115dd576115dc610e37565b5b60006115eb848285016115b2565b91505092915050565b6115fd81610f87565b82525050565b600060208201905061161860008301846115f4565b92915050565b600081905092915050565b6000611635838561161e565b9350611642838584610f08565b82840190509392505050565b600061165b828486611629565b91508190509392505050565b50565b600061167760008361161e565b915061168282611667565b600082019050919050565b60006116988261166a565b9150819050919050565b60008190508160005260206000209050919050565b600081546116c4816114b5565b6116ce818661161e565b945060018216600081146116e957600181146116fa5761172d565b60ff1983168652818601935061172d565b611703856116a2565b60005b8381101561172557815481890152600182019150602081019050611706565b838801955050505b50505092915050565b600061174282846116b7565b915081905092915050565b60006117588261102c565b611762818561161e565b9350611772818560208601611048565b80840191505092915050565b600061178a828461174d565b915081905092915050565b7f4e487b7100000000000000000000000000000000000000000000000000000000600052601260045260246000fd5b60006117cf82610f87565b91506117da83610f87565b9250826117ea576117e9611795565b5b828204905092915050565b600061180082610f87565b915061180b83610f87565b92508261181b5761181a611795565b5b82820690509291505056fea26469706673582212202e3ee05f175f36f9437271c1bf144db4da9edde2c383790cd137157709a41ecd64736f6c63430008090033",
  "devdoc": {
    "kind": "dev",
    "methods": {
      "substring(string,uint256,uint256)": {
        "details": "This function finds the substring."
      }
    },
    "version": 1
  },
  "userdoc": {
    "kind": "user",
    "methods": {},
    "version": 1
  },
  "storageLayout": {
    "storage": [
      {
        "astId": 401,
        "contract": "contracts/SendContract.sol:SendContract",
        "label": "lastRandomNum",
        "offset": 0,
        "slot": "0",
        "type": "t_string_storage"
      },
      {
        "astId": 403,
        "contract": "contracts/SendContract.sol:SendContract",
        "label": "fileHash",
        "offset": 0,
        "slot": "1",
        "type": "t_string_storage"
      },
      {
        "astId": 405,
        "contract": "contracts/SendContract.sol:SendContract",
        "label": "generatedrandomNum",
        "offset": 0,
        "slot": "2",
        "type": "t_string_storage"
      },
      {
        "astId": 409,
        "contract": "contracts/SendContract.sol:SendContract",
        "label": "randNumToFileHashMap",
        "offset": 0,
        "slot": "3",
        "type": "t_mapping(t_string_memory_ptr,t_string_storage)"
      },
      {
        "astId": 411,
        "contract": "contracts/SendContract.sol:SendContract",
        "label": "owner",
        "offset": 0,
        "slot": "4",
        "type": "t_address"
      }
    ],
    "types": {
      "t_address": {
        "encoding": "inplace",
        "label": "address",
        "numberOfBytes": "20"
      },
      "t_mapping(t_string_memory_ptr,t_string_storage)": {
        "encoding": "mapping",
        "key": "t_string_memory_ptr",
        "label": "mapping(string => string)",
        "numberOfBytes": "32",
        "value": "t_string_storage"
      },
      "t_string_memory_ptr": {
        "encoding": "bytes",
        "label": "string",
        "numberOfBytes": "32"
      },
      "t_string_storage": {
        "encoding": "bytes",
        "label": "string",
        "numberOfBytes": "32"
      }
    }
  }
}